:020000040800F2
:1000000000200020A10D0008110D0008130D0008AC
:1000100000000000000000000000000000000000E0
:10002000000000000000000000000000150D0008A6
:100030000000000000000000170D0008190D000866
:10004000F10D0008F10D0008F10D0008F10D000898
:10005000F10D0008F10D0008F10D0008F10D000888
:10006000F10D0008F10D0008F10D0008F10D000878
:10007000F10D0008F10D0008F10D0008F10D000868
:10008000F10D0008F10D000800000000F10D00085E
:10009000F10D0008710B0008F10D0008F10D0008CA
:1000A000F10D0008F10D0008F10D0008F10D000838
:1000B000F10D000800000000F10D00080000000034
:1000C0000448054B10B5834203D0044B002B00D0ED
:1000D000984710BD0C0000200C000020000000001C
:1000E00006480749091A8B10C90FC91810B54910DD
:1000F00003D0044B002B00D0984710BD0C0000200B
:100100000C0000200000000010B5074C2378002BE5
:1001100009D1FFF7D5FF054B002B02D0044800E0C2
:1001200000BF0123237010BD0C0000200000000060
:10013000F40D0008054B10B5002B03D00449054809
:1001400000E000BFFFF7CCFF10BDC046000000007C
:1001500010000020F40D0008002243088B4274D3E5
:1001600003098B425FD3030A8B4244D3030B8B42B8
:1001700028D3030C8B420DD3FF22090212BA030CC1
:100180008B4202D31212090265D0030B8B4219D3A2
:1001900000E0090AC30B8B4201D3CB03C01A5241C2
:1001A000830B8B4201D38B03C01A5241430B8B420A
:1001B00001D34B03C01A5241030B8B4201D30B03F3
:1001C000C01A5241C30A8B4201D3CB02C01A52411A
:1001D000830A8B4201D38B02C01A5241430A8B42DD
:1001E00001D34B02C01A5241030A8B4201D30B02C6
:1001F000C01A5241CDD2C3098B4201D3CB01C01AE0
:10020000524183098B4201D38B01C01A52414309E9
:100210008B4201D34B01C01A524103098B4201D3D7
:100220000B01C01A5241C3088B4201D3CB00C01A44
:10023000524183088B4201D38B00C01A52414308BC
:100240008B4201D34B00C01A5241411A00D20146E1
:10025000524110467047FFE701B5002000F006F854
:1002600002BDC0460029F7D076E770477047C04608
:10027000F0B50500830749D0541E002A45D003007D
:100280000326CAB202E00135013C3ED301332A7095
:100290003342F8D1032C30D9FF220A401502AD18A1
:1002A0002A04AD180F2C34D92700103F3F093E0116
:1002B000B4461E001A0010366644156055609560FD
:1002C000D56010329642F8D101373F01DB190F2774
:1002D0000C22274022403C00002A0ED03E1FB608C8
:1002E000B400A4461A001C1D644420C2A242FCD1E2
:1002F00003240136B6009B193C40002C05D0C9B23E
:100300001C19197001339C42FBD1F0BD030014008D
:10031000C0E72700E2E7C04670B50D4B0D4D5E1BF0
:10032000B610AB4205D0002408CD01349847A64250
:10033000FAD800F05FFD084B084D5E1BB610AB42CB
:1003400005D0002408CD01349847A642FAD870BDE4
:10035000140E0008140E0008180E0008140E0008F1
:1003600010B504000F4B1978FA208000FFF7F4FE57
:1003700001000D4B1868FFF7EFFE00F091F8002820
:100380000DD1032C01D901200AE001300022210007
:10039000404200F075F8054B1C60002000E0012091
:1003A00010BDC0460000002008000020040000200E
:1003B00010B5064A136810210B4313600320FFF7A2
:1003C000CFFF00F08DFC002010BDC0460020024091
:1003D000034A1168034B1B785B1813607047C046D3
:1003E000280000200000002070B5002811DB8308E1
:1003F000134DC0339B005C5903221040C000FC32F7
:1004000016008640B44389010A40824022435A5173
:1004100070BD0F230340083B9B0806339B00094A2D
:10042000944663445C6803221040C000FC3215000F
:100430008540AC4389010A40824022435A60E7E785
:1004400000E100E000ED00E0013880235B04984209
:100450000FD2094A50600948036A1B021B0AC021D7
:1004600009060B43036200239360073313600020E7
:1004700070470120FCE7C04610E000E000ED00E01E
:1004800010B5FFF7B1FF10BD002805DB1F220240A9
:1004900001239340014A13607047C04600E100E029
:1004A00010B5FFF7D1FF10BD03690B4201D0012049
:1004B00070470020FCE700003D23C35C012B26D1E0
:1004C0003C330222C2540268D36801210B43D3603B
:1004D0000368114A93420FD08022D20593420BD079
:1004E0000E4A934208D00E4A934205D01A68012161
:1004F0000A431A6000200BE0996807220A40062A86
:1005000007D01A6801210A431A60002000E0012088
:1005100070470020FCE7C046002C0140000400406A
:10052000004001407047704770477047704710B5F2
:100530000400026813699B070FD5D3689B070CD58D
:1005400003235B4213610433037703689B699B07B2
:1005500063D0FFF7E9FF00232377226813695B0765
:1005600012D5D3685B070FD505235B4213610733B0
:10057000237723689A69C0239B001A4253D0200036
:10058000FFF7D2FF00232377226813691B0710D5DA
:10059000D3681B070DD509235B4213610D33237705
:1005A0002368DB699B0745D02000FFF7BDFF0023D0
:1005B000237722681369DB0612D5D368DB060FD5D3
:1005C00011235B421361193323772368DA69C0234F
:1005D0009B001A4235D02000FFF7A6FF00232377A7
:1005E00022681369DB0702D5D368DB0730D42268A1
:1005F00013691B0602D5D3681B0630D42268136921
:100600005B0602D5D3685B0630D4226813699B066B
:1006100002D5D3689B0630D410BDFFF784FF2000BD
:10062000FFF783FF97E72000FFF77DFF2000FFF72C
:100630007CFFA7E72000FFF776FF2000FFF775FF9C
:10064000B5E72000FFF76FFF2000FFF76EFFC5E75B
:1006500002235B4213612000FFF764FFC7E7812399
:100660005B421361200000F08EF8C7E741235B4234
:1006700013612000FFF75AFFC7E721235B42136194
:10068000200000F07FF8C7E70368214A904206D0B7
:100690008022D205904202D01E4A904203D170229D
:1006A00093434A6813431A4A904212D08022D205DB
:1006B00090420ED0174A90420BD0174A904208D071
:1006C000164A904205D0164A904202D0154A9042EE
:1006D00003D1154A1A40CB681343802293434A69D9
:1006E000134303608B68C3620B688362084B9842B4
:1006F00008D00A4B984205D0094B984202D0094BCA
:10070000984201D10B690363012343617047C046DE
:10071000002C014000040040002000400040014047
:100720000044014000480140FFFCFFFF70B5041E7B
:1007300026D03D23C35C002B1CD03D2502236355EE
:10074000210001C9FFF7A0FF01234622A354083A64
:10075000A3540132A3540132A3540132A3540132F1
:10076000A3540132A3540132A3540132A35463555C
:10077000002070BD3C330022C25400F0F1FADCE7E7
:100780000120F6E770477047F0B5002216E00B69CC
:100790009C46C4682B006B435E00F618F743B443D5
:1007A00066465E433443C4604C68022C26D04D68D4
:1007B00004683C406B432343036001320C68230010
:1007C000D3403BD00123934025001D401C42F4D070
:1007D0004B68013B012BDAD88F6883682C006C438F
:1007E00066003619B3437C43234383600E68CC68AC
:1007F0004368B343744323434360C8E7FF2D0DD8D8
:100800004C69A446066A1C006C436C4325012D1BF1
:10081000AE4365466C4334430462C8E74C69A44662
:10082000466A2D0A2C006C436C436C4325012D1B3A
:10083000AE4365466C4334434462B8E70020F0BDE4
:10084000014B18607047C04608000020F0B5DE4636
:1008500057464E464546E0B58BB01822002104A805
:10086000FFF706FD464B5A698021C9030A435A61C6
:100870005A690A400392039A5A69802189020A43FD
:100880005A615A690A400292029A5A698021C90241
:100890000A435A615B690B400193019B394D012664
:1008A000AE6202239B46AB6202339A46AB620433CC
:1008B0009946AB6208339846AB622027AF6230336B
:1008C000AB628022AA6204960896902004A9C00513
:1008D000FFF75AFF0496059600240694079408949F
:1008E00004A92800FFF750FF594604910596069485
:1008F0000794089404A92800FFF746FF5146049185
:10090000059606940794089404A92800FFF73CFF75
:1009100049460491059606940794089404A9280072
:10092000FFF732FF41460491059606940794089418
:1009300004A92800FFF728FF04970596069407945A
:10094000089404A92800FFF71FFF4023049305968D
:1009500006940794089404A92800FFF715FF802245
:100960000492059606940794089404A92800FFF7BA
:100970000BFF0BB0F0BCBB46B246A946A046F0BD8B
:100980000010024000040048204842698023DB0236
:10099000134343611E4B1968802212050A431A60F3
:1009A0001968802292050A431A601968802212068B
:1009B0000A431A601968802252040A431A6099692E
:1009C0008022520111439961C3698021C9010B43FF
:1009D000C361104B1868014319601968182001435E
:1009E0001960196814380143196059680A435A603C
:1009F0005A6802435A605968E022D2000A435A609A
:100A00001A6840210A431A607047C046001002402D
:100A1000000400480038004082B0002301934300E6
:100A2000181804E0C046C046019B01330193019BA6
:100A30008342F7D302B0704770B505000C00274A17
:100A4000916980235B050B4393610120FFF7E4FF6D
:100A5000234B06221A70234B9B68DB07FBD5214BE7
:100A6000DB681E4EB26980235B011343B3611E48ED
:100A7000FFF7D2FFB26980235B051343B361012006
:100A8000FFF7CAFF164B02221A70164B9B68DB0752
:100A9000FBD5144BDB682B0A114A1370114B9B6872
:100AA000DB07FBD50F4BDB680D4B1D700D4B9B68B7
:100AB000DB07FBD50B4BDB68094B1C70094B9B68B4
:100AC000DB07FBD5074BDB68044A916980235B0198
:100AD0000B4393610448FFF79FFF70BD000400487B
:100AE0000C380040003800408813000010B50400A6
:100AF0001B4A916980235B050B4393610120FFF73B
:100B00008BFF184B03221A70174B9B68DB07FBD532
:100B1000154BDB68230A134A1370134B9B68DB07E2
:100B2000FBD5114BDB680F4B1C700F4B9B68DB0731
:100B3000FBD50D4BDB680B4B42221A700A4B9B68AE
:100B4000DB07FBD5084BDC68E4B2054A91698023DA
:100B50005B010B4393610548FFF75EFF200010BD6A
:100B6000000400480C3800400038004088130000A2
:100B700010B51248FFF7DBFC114C2078FFF7B6FFE9
:100B8000104A5369FF2109020B40536123780E4A32
:100B9000D25C82420DD00B494A69012002434A616E
:100BA0000133D8B2064C20700621FFF75BFB2170A1
:100BB00010BD044A516908435061F1E7300000203C
:100BC0002C000020000400480C0E000872B6FEE75E
:100BD00010B51A4A136801218B431360174B1B6829
:100BE000DB07FBD4164A136801210B431360144B37
:100BF0001B689B07FBD5124B1A68F8218A4378398A
:100C00000A431A605A6870318A435A605A680D491B
:100C10000A405A605A6803218A435A60084B5B684D
:100C20000C221A42FAD10848FFF70AFE0320FFF708
:100C300097FB002800D110BDFFF7C8FF002002403D
:100C400000100240FFF8FFFF00127A0070B5FFF7B6
:100C5000AFFBFFF7BDFFFFF797FEFFF7F7FD00F0D3
:100C600061F81B48FFF728FC041E01D1050008E0CD
:100C7000FFF7ACFF174B595D2800FFF7DDFE01358C
:100C8000EDB2052DF6D925000CE025000AE0124B47
:100C9000124ADA62013590200121C005FFF704FCF9
:100CA0000128F2D090200121C005FFF7FDFB0028AC
:100CB000F1D1002DEFD1084BDA6AF423FF339A42C9
:100CC000E5D0054BF422FF32DA620125E3E7C046A6
:100CD000300000200C0E000800440140E703000033
:100CE00082B00A4B996901221143996199690A40BE
:100CF0000092009ADA69802149050A43DA61DB69CA
:100D00000B400193019B02B07047C04600100240A7
:100D1000FEE7FEE77047704710B5FFF759FB10BDBF
:100D20007047000010B50A480A4B03600A4B436045
:100D300000238360094AC260036143618033836199
:100D4000FFF7F4FC002800D110BDFFF73FFFFBE7E1
:100D500030000020004401403F1F0000E703000076
:100D600000B583B002680C4B9A4201D003B000BDBD
:100D70000A4B9A69802189020A439A619B690B4058
:100D80000193019B002200211520FFF779FB15201C
:100D9000FFF77AFBEAE7C04600440140001002403A
:100DA0000D488546FFF7BCFF0C480D490D4A00234E
:100DB00002E0D458C4500433C4188C42F9D30A4A10
:100DC0000A4C002301E013600432A242FBD3FFF778
:100DD000A3FAFFF73BFFFEE7002000200000002001
:100DE0000C0000201C0E00080C00002078000020E1
:100DF000FEE70000F8B5C046F8BC08BC9E46704748
:0C0E0000F8B5C046F8BC08BC9E46704720
:080E0C00AA55CC33F00F0000E1
:040E1400350100089C
:040E180009010008C4
:0C0E1C00010000000400000000127A0039
:0400000508000DA141
:00000001FF
