:020000040800F2
:1000000000200020311E0008C91C0008CB1C00087D
:1000100000000000000000000000000000000000E0
:10002000000000000000000000000000CD1C0008DF
:100030000000000000000000CF1C0008D11C0008D8
:10004000811E0008811E0008811E0008811E000814
:10005000811E0008D91C0008811E0008811E0008AE
:10006000811E0008811E0008811E0008811E0008F4
:100070000D1B0008811E0008811E0008811E00085B
:10008000811E0008811E000800000000811E00087B
:10009000811E0008811E0008811E0008811E0008C4
:1000A000811E0008811E0008811E0008811E0008B4
:1000B000811E000800000000811E000800000000F2
:1000C0000448054B10B5834203D0044B002B00D0ED
:1000D000984710BD10000020100000200000000014
:1000E00006480749091A8B10C90FC91810B54910DD
:1000F00003D0044B002B00D0984710BD1000002007
:10010000100000200000000010B5074C2378002BE1
:1001100009D1FFF7D5FF054B002B02D0044800E0C2
:1001200000BF0123237010BD10000020000000005C
:10013000841E0008054B10B5002B03D00449054868
:1001400000E000BFFFF7CCFF10BDC046000000007C
:1001500014000020841E0008002243088B4274D340
:1001600003098B425FD3030A8B4244D3030B8B42B8
:1001700028D3030C8B420DD3FF22090212BA030CC1
:100180008B4202D31212090265D0030B8B4219D3A2
:1001900000E0090AC30B8B4201D3CB03C01A5241C2
:1001A000830B8B4201D38B03C01A5241430B8B420A
:1001B00001D34B03C01A5241030B8B4201D30B03F3
:1001C000C01A5241C30A8B4201D3CB02C01A52411A
:1001D000830A8B4201D38B02C01A5241430A8B42DD
:1001E00001D34B02C01A5241030A8B4201D30B02C6
:1001F000C01A5241CDD2C3098B4201D3CB01C01AE0
:10020000524183098B4201D38B01C01A52414309E9
:100210008B4201D34B01C01A524103098B4201D3D7
:100220000B01C01A5241C3088B4201D3CB00C01A44
:10023000524183088B4201D38B00C01A52414308BC
:100240008B4201D34B00C01A5241411A00D20146E1
:10025000524110467047FFE701B5002000F006F854
:1002600002BDC0460029F7D076E770477047C04608
:10027000F0B50500830749D0541E002A45D003007D
:100280000326CAB202E00135013C3ED301332A7095
:100290003342F8D1032C30D9FF220A401502AD18A1
:1002A0002A04AD180F2C34D92700103F3F093E0116
:1002B000B4461E001A0010366644156055609560FD
:1002C000D56010329642F8D101373F01DB190F2774
:1002D0000C22274022403C00002A0ED03E1FB608C8
:1002E000B400A4461A001C1D644420C2A242FCD1E2
:1002F00003240136B6009B193C40002C05D0C9B23E
:100300001C19197001339C42FBD1F0BD030014008D
:10031000C0E72700E2E7C04670B50D4B0D4D5E1BF0
:10032000B610AB4205D0002408CD01349847A64250
:10033000FAD801F0A7FD084B084D5E1BB610AB4282
:1003400005D0002408CD01349847A642FAD870BDE4
:100350009C1E00089C1E0008A01E00089C1E000891
:1003600010B504000F4B1978FA208000FFF7F4FE57
:1003700001000D4B1868FFF7EFFE00F0B1FB0028FD
:100380000DD1032C01D901200AE001300022210007
:10039000404200F0A1FB054B1C60002000E0012062
:1003A00010BDC046000000200C000020040000200A
:1003B00010B5064A136810210B4313600320FFF7A2
:1003C000CFFF01F069FC002010BDC04600200240B4
:1003D000034A1168034B1B785B1813607047C046D3
:1003E0002C00002000000020014B18687047C04618
:1003F0002C00002070B50400FFF7F6FF0500631C19
:1004000002D0044B1B78E418FFF7EEFF401BA0421C
:10041000FAD370BD0000002030B583B00400002383
:1004200001930368996803220A40012A14D099684D
:10043000224A114218D19A6801210A439A60204B3E
:1004400018682049FFF788FE0190019B002B15D00A
:10045000019B013B0193F8E71A68D2072BD4DA68B5
:100460001204E4D5002024E0A36B10221343A363FD
:10047000E36B0F3A1343E36301201AE0FFF7B4FF85
:10048000050023681B68DB0712D4FFF7ADFF401B94
:100490000228F6D923681B68DB07F2D4A36B10226D
:1004A0001343A363E36B0F3A1343E363012000E0BC
:1004B000002003B030BD0020FBE7C04617000080DD
:1004C0000C00002040420F0070B5041E00D1B4E0C3
:1004D000836B002B00D180E0A36BDB0600D5A6E088
:1004E00023689A68042108001040114200D09EE061
:1004F000A26B53490A400631FF310A43A26399684F
:1005000003220A40012A6ED0DA6818218A43A168C2
:100510000A43DA60226813699B009B0861680B43F9
:1005200013612268D36847490B40D360237E9B0345
:10053000627ED2031343A17E4A031343A26A012AB7
:1005400058D0802252011343E26813432269022AE1
:1005500052D003432422A25C52001343E27E012ABC
:100560004CD0E269C221FF318A4202D0216A0A439B
:1005700013432168CA681A43CA60E26A80214905A8
:100580008A420DD0012A0BD0022A09D0032A07D0B3
:10059000042A05D0052A03D0062A01D0072A0AD149
:1005A0002068416907229143416120684169E56AF9
:1005B0002A400A4342612268D26823490A409A428B
:1005C0002BD0A36B12229343023A1343A363E36B32
:1005D0000F3A1343E36301202EE0C36334228354B4
:1005E00001F00AF878E71A68D2079AD4DA68120498
:1005F00097D489E70200A6E70420AAE7002903D1DF
:10060000802252021343ACE7A26B20210A43A2636B
:10061000E26B1F390A43E263A3E70023E363A36BA2
:1006200003229343023A1343A363002004E0A36B25
:1006300010221343A363012070BD0120FCE7C046D4
:10064000FDFEFFFF1902FEFFE7FF3F8310B5040028
:1006500003689B685B0723D43423C35C012B21D040
:1006600034230122C254437E012B14D10020A26BFB
:100670000D4B1A4080235B001343A3630023E36305
:100680003422A3542368183A1A602268936804211C
:100690000B43936010BDFFF7BFFE0028FAD1E6E7D9
:1006A0000220F7E70220F5E7FEF0FFFFF8B50400AF
:1006B0000E004769082F04D00368DB68DB0718D4F5
:1006C0000C27FFF791FE050023681A6817421FD117
:1006D000731CF9D0002E15D123681B681F42F3D17B
:1006E000A36B04221343A36334230022E2540320A8
:1006F00032E0836B20221343836334230022C254ED
:10070000012029E0FFF770FE401BB042DCD9E3E78F
:10071000A16B802292000A43A263D968C022120111
:10072000114213D1A27E002A10D11A6812070DD5EA
:100730009A68520711D45A680C218A435A60A36BF5
:100740000B4A13400432FF321343A363207E002878
:100750000CD123680C221A60F8BDA36B202213432E
:10076000A363E36B1F3A1343E363EFE70020F3E770
:10077000FEFEFFFF0368186C7047704770477047B4
:1007800070B5040003681D685E686A0701D57207CA
:1007900003D42A0727D5320725D5A26BD20604D465
:1007A000A16B802292000A43A263D968C022120181
:1007B000114212D1A27E002A0FD12A070DD59A68C4
:1007C00052072DD45A680C218A435A60A36B1F4AE2
:1007D00013400432FF321343A3632000FFF7CDFF21
:1007E00023680C221A602B0601D5330621D4ED06AE
:1007F00015D5F60613D5A36A012B03D02368DB6851
:10080000DB0709D5E36B02221343E36323680E324F
:100810001A602000FFF7B3FF236810221A6070BD32
:10082000A36B20221343A363E36B1F3A1343E363D9
:10083000D3E7A26B80235B021343A3632000FFF77F
:100840009DFF236880221A60D1E7C046FEFEFFFFAD
:1008500030B583B00400002301933433C35C012B13
:1008600000D181E034230122C254026893685B07FF
:100870006CD448683D4B98424DD0936A0D68012076
:10088000A84003439362E36A072B27D8002B10D1BB
:1008900088682268556907232B40984209D050691F
:1008A000072398435061206842698D682B401343A9
:1008B00043610B681A00103A022A51D82C4A126878
:1008C000102B13D0112B0ED080235B041343284A26
:1008D00013600B68102B0CD000203CE080225205E6
:1008E0009342E6D0D4E78023DB03EFE780231B04A9
:1008F000ECE7204B18682049FFF72EFC83001B18FB
:100900005B00019302E0019B013B0193019B002BE3
:10091000F9D100201FE0936A0D680120A8408343AD
:1009200093620B681A00103A022A1BD8104A126808
:10093000102B09D0112B05D0104B13400C4A13601B
:10094000002008E00E4BF8E70E4BF6E7836B202201
:1009500013438363012034230022E25403B030BDEB
:100960000020F8E70020F6E70220F7E7011000007A
:10097000082701400C00002040420F00FFFFFFFE4F
:10098000FFFFBFFFFFFF7FFF70B504003423C35C90
:10099000012B50D034230122C254036899680232DB
:1009A0000A40012A05D11A68D2073ED4DA68120437
:1009B0003BD4A26B21490A400631FF310A43A263AE
:1009C000DE6801310E40DA688A43DA602268916895
:1009D00080231B060B439360FFF706FD0500236889
:1009E0009A68002A13DAFFF7FFFC401B0228F6D9A9
:1009F00023689B68002BF2DAA36B12229343023A1E
:100A00001343A36334230022E25401200CE0DA688C
:100A10003243DA60A36B03229343023A1343A36386
:100A2000002034230022E25470BDA36B2022134324
:100A3000A3630120F5E70220F6E7C046FDFEFFFFB5
:100A400070B5002811DB8308134DC0339B005C593F
:100A500003221040C000FC3216008640B4438901D6
:100A60000A40824022435A5170BD0F230340083B85
:100A70009B0806339B00094A944663445C68032242
:100A80001040C000FC3215008540AC4389010A408B
:100A9000824022435A60E7E700E100E000ED00E019
:100AA000013880235B0498420FD2094A50600948FC
:100AB000036A1B021B0AC02109060B4303620023C1
:100AC000936007331360002070470120FCE7C046A5
:100AD00010E000E000ED00E010B5FFF7B1FF10BD41
:100AE00010B5FFF7DDFF10BDF0B583B0002356E071
:100AF00086685F000324BC40A643CC68BC403443F6
:100B00008460446894434E683609012232409A401A
:100B10002243426053E0DE080836B60037580532FB
:100B20001A4092000F249440A7430C69944022007D
:100B30003A43325056E0032600E00026A640340037
:100B40003C4302329200444E9451444A9768EA432F
:100B50003E00AE434C68E40201D53E002E433F4CBC
:100B6000A660E7683E0016404C68A40201D53E002E
:100B70002E433A4CE66067683E0016404C68A4037A
:100B800001D53E002E43354C6660266832404C68E5
:100B9000E40301D52A003243304C226001330C6853
:100BA0002200DA4056D001229A4025001540144216
:100BB000F4D04E6803243440013C012C98D94C6891
:100BC00003222240032A08D0C4685E000322B240F8
:100BD00094438A68B2402243C2604C680322224098
:100BE000022A98D004685E0003221700B740BC4375
:100BF0004F683A40B240224302604C68C0229202E1
:100C00001442CBD0164CA66901221643A661A469F2
:100C100022400192019A9A08941CA4000E4EA759F2
:100C200003241C40A4000F26A640B7439026F605D7
:100C3000B04282D00B4EB04208D00B4EB04207D02B
:100C40000A4EB04200D176E7052677E7012675E720
:100C5000022673E703B0F0BD00000140000401402C
:100C6000001002400004004800080048000C004842
:100C7000426913000B401B0491430B43836170478F
:100C800010B5054B5B69184200D110BD024B58618D
:100C900000F0EEFEF9E7C0460004014030B5036AFB
:100CA000012293430362056A426883697324A34364
:100CB0000C681C4302239D438B682B43154DA842AF
:100CC00008D0154DA84205D0144DA84202D0144DAD
:100CD000A84206D10825AB431D00CB682B43042551
:100CE000AB430C4DA84208D00B4DA84205D00B4D8C
:100CF000A84202D00A4DA84205D10A4D2A404D69AA
:100D000015438A692A43426084614A6842630362E8
:100D100030BDC046002C014000400140004401406D
:100D200000480140FFFCFFFF30B5036A184A13403A
:100D30000362046A4268C3697325AB430D681D43AF
:100D4000144B1C408B681B022343134CA04209D058
:100D5000124CA0420DD0124CA0420AD0114CA0421D
:100D60000FD106E0104C1C40CB681B0223430F4CF4
:100D700023400F4C22404C69240114438A6912011C
:100D800022434260C5614A68C263036230BDC04607
:100D9000FFFEFFFFFFFDFFFF002C01400040014070
:100DA0000044014000480140FFF7FFFFFFFBFFFF49
:100DB000FFCFFFFF30B5036A134A13400362046A92
:100DC0004368C269114D2A400D682D021543104A2F
:100DD00014408A68120322430E4CA04208D00E4CE5
:100DE000A04205D00D4CA04202D00D4CA04204D12F
:100DF0000C4C1C404B699B0123434360C5614B680D
:100E00000364026230BDC046FFEFFFFFFF8CFFFFAF
:100E1000FFDFFFFF002C0140004001400044014083
:100E200000480140FFBFFFFF30B5036A046A012597
:100E3000AC4304628469EF35AC43120122430A24B7
:100E4000A3430B438261036230BD000030B5036AE7
:100E50001024A34303628469036A054D2C401203E6
:100E60002243A024A343090119438261016230BDDA
:100E7000FF0FFFFF8368702293430B43693A1343CC
:100E800083607047704700000368214A904206D093
:100E90008022D205904202D01E4A904203D1702295
:100EA00093434A6813431A4A904212D08022D205D3
:100EB00090420ED0174A90420BD0174A904208D069
:100EC000164A904205D0164A904202D0154A9042E6
:100ED00003D1154A1A40CB681343802293434A69D1
:100EE000134303608B68C3620B688362084B9842AC
:100EF00008D00A4B984205D0094B984202D0094BC2
:100F0000984201D10B690363012343617047C046D6
:100F1000002C01400004004000200040004001403F
:100F20000044014000480140FFFCFFFF70B5041E73
:100F300026D03D23C35C002B1CD03D2502236355E6
:100F4000210001C9FFF7A0FF01234622A354083A5C
:100F5000A3540132A3540132A3540132A3540132E9
:100F6000A3540132A3540132A3540132A354635554
:100F7000002070BD3C330022C25400F0BDFEDCE70F
:100F80000120F6E770B5041E26D03D23C35C002B7C
:100F90001CD03D2502236355210001C9FFF774FFD2
:100FA00001234622A354083AA3540132A354013228
:100FB000A3540132A3540132A3540132A354013289
:100FC000A3540132A3546355002070BD3C3300226A
:100FD000C254FFF757FFDCE70120F6E770B5036A5C
:100FE000102293430362026A44688369164D2B40C2
:100FF0000D682D021D4320239A438B681B01134368
:10100000124A904209D0124A90420ED0114A9042A0
:101010000BD0114A904210D107E0802293431E006A
:10102000CB681B013343403A93430C4A14404A694E
:10103000920022438C69A4001443446085614A688D
:101040008263036270BDC046FF8CFFFF002C01402D
:10105000004001400044014000480140FFF3FFFF11
:1010600070B504000D003C23C35C012B00D16AE085
:101070003C230121C154082A50D01CD8002A35D065
:10108000042A16D100682900FFF7A8FF2268916999
:1010900080231B010B439361226893692B490B400A
:1010A000936121688B692A69120213438B610020C6
:1010B00030E001202EE00C2A16D100682900FFF74D
:1010C00079FE2268D16980231B010B43D36122681A
:1010D000D3691E490B40D3612168CB692A6912028A
:1010E0001343CB61002015E0012013E000682900C4
:1010F000FFF7D4FD2268936908210B4393612268AE
:10110000936904398B4393612268936929690B437E
:10111000936100203C230022E25470BD0068290046
:10112000FFF702FE2268D36908210B43D3612268CE
:10113000D36904398B43D3612268D36929690B438E
:10114000D3610020E6E70220E7E7C046FFFBFFFF90
:1011500030B58468034D2C401B0213430B432343DB
:10116000836030BDFF00FFFF10B504000B003C2280
:10117000825C012A00D177E03C22012181540132B6
:101180000131815401688A68384802408A601968D0
:1011900060294FD023D8402957D011D8202904D016
:1011A0000AD8002901D0102904D12068FFF762FE77
:1011B00000202AE0012028E03029F6D0012024E098
:1011C00050290AD15968DA682068FFF72DFE206897
:1011D0005021FFF74FFE002017E0012015E080228C
:1011E000520191423CD080229201914214D0702948
:1011F00038D199685A68DB682068FFF7A9FF226830
:10120000936877210B43936000203D230122E25431
:10121000013B0022E25410BD99685A68DB682068DF
:10122000FFF796FF226891688023DB010B439360F0
:101230000020EAE75968DA682068FFF707FE2068AF
:101240006021FFF717FE0020DFE75968DA682068A1
:10125000FFF7EAFD20684021FFF70CFE0020D4E7ED
:101260000020D2E70120D0E70220D4E78800FFFF6A
:1012700010B51F23194001248C40036AA343036265
:10128000036A8A401343036210BD000010B50400D6
:10129000002936D13E23C35C013B5A1E9341DBB289
:1012A000002B62D1002945D13E330222E25420684E
:1012B0000122FFF7DDFF23682E4A934208D02E4A11
:1012C000934205D02D4A934202D02D4A934204D135
:1012D000596C802212020A435A642368254A9342B9
:1012E00038D08022D205934234D0264A934231D05E
:1012F000214A93422ED01A6801210A431A60002025
:1013000034E0042908D008290DD04123C35C013BF7
:101310005A1E9341DBB2C3E73F23C35C013B5A1E15
:101320009341DBB2BCE74023C35C013B5A1E9341AF
:10133000DBB2B5E7042905D0082907D041230222F2
:10134000E254B4E73F230222E254B0E740230222F2
:10135000E254ACE7996807220A40062A07D01A68C7
:1013600001210A431A60002000E0012010BD002086
:10137000FCE7C046002C0140004001400044014011
:10138000004801400004004030B53C23C35C012B01
:1013900028D03C230122C25401330132C2540368D5
:1013A0005C689D686E3294430A6822435A60036801
:1013B0000D4A934209D08022D205934205D00B4AB0
:1013C000934202D00A4A934204D1802295434A684C
:1013D0002A439A603D230122C254013B0022C25499
:1013E000002030BD0220FCE7002C0140000400403A
:1013F0000040014010B50300007900284ED01A6863
:10140000002A55D0587901281ED0022826D000285D
:101410002ED129494C6894434C601A680C682243C9
:101420000A609A79002A42D0022A23D0032A2BD0BC
:10143000012A3FD11C68204AD168A143D1601B68B2
:1014400091680B43936032E01B4908689043086041
:101450001A68486802434A600020E2E716490868B3
:1014600002430A601A68486802434A600020D8E7CD
:101470000120D6E71C68104A9168A14391601B685F
:10148000D1680B43D36012E019680B4A946821437A
:1014900091601B68D1680B43D36008E01C68064A62
:1014A0001168A1431160196853688B43536010BDE4
:1014B0000020FCE70120FAE700040140F0B500221B
:1014C00016E00B699C46C4682B006B435E00F6185F
:1014D000F743B44366465E433443C4604C68022C11
:1014E00026D04D6804683C406B43234303600132BF
:1014F0000C682300D3403BD00123934025001D40BE
:101500001C42F4D04B68013B012BDAD88F6883680A
:101510002C006C4366003619B3437C43234383603D
:101520000E68CC684368B343744323434360C8E701
:10153000FF2D0DD84C69A446066A1C006C436C4311
:1015400025012D1BAE4365466C4334430462C8E756
:101550004C69A446466A2D0A2C006C436C436C43CC
:1015600025012D1BAE4365466C4334434462B8E706
:101570000020F0BD014B18607047C0460C000020F1
:1015800000B585B00C22002101A8FEF771FE1848B5
:10159000184B0360002343608360C3600122026133
:1015A00004214161037643768376C376C221FF31FD
:1015B000C16103629E39FF3943548262FEF784FFA2
:1015C00000280FD10623019380235B01029380231F
:1015D0005B050393064801A9FFF73AF9002804D1F7
:1015E00005B000BD00F0A2FAECE700F09FFAF7E7C3
:1015F000300000200024014010B588B004001422FF
:10160000002103A8FEF734FE2268114B9A4201D054
:1016100008B010BD0F4B9A69802189000A439A6176
:101620009A690A400192019A5A69802189020A4303
:101630005A615B690B400293029B402303933D3B3D
:101640000493902003A9C005FFF74EFAE0E7C046D7
:101650000024014000100240F0B5C64600B58CB031
:101660000AAD082200212800FEF702FE1822002100
:1016700004A8FEF7FDFD234B5A698021C9030A43E4
:101680005A615A690A400392039A5A698021890271
:101690000A435A615A690A400292029A5A698021A1
:1016A000C9020A435A615B690B400193019B164FC3
:1016B00080239846BB62154A93680F218B43936041
:1016C0009022D205D3680C398B4301242343D36085
:1016D00013688B4313600A942C7100266E71AC71F1
:1016E0002800FFF787FE4346049305940696079665
:1016F000089604A93800FFF7E1FE0CB080BCB8469C
:10170000F0BDC04600100240000400480000014047
:10171000044BC12189005A58034802405A502022E4
:101720001A60704700E100E0FF00FFFF82B0430055
:1017300018180023019304E0C046C046019B013302
:101740000193019B8342F7D302B0704770B5142018
:10175000FFF7ECFF0A4CA36980252D022B43A36100
:101760001420FFF7E3FFA26980231B061343A36144
:101770001420FFF7DBFFA3691D43A56170BDC046C0
:101780000008004810B50400454A91698023DB0138
:101790000B43936143B2002B46DB9022D205916943
:1017A00080231B060B439361630645D59022D20527
:1017B000916980235B010B439361A30644D5394AA9
:1017C000916980239B000B439361E30643D5354A1F
:1017D000916980235B000B439361FFF7B7FF2307F9
:1017E00040D59022D205916980231B020B4393615F
:1017F00063073FD59022D205916980235B010B439B
:101800009361A3073ED5274A916980239B000B4330
:101810009361E4073DD5234A916980235B000B4324
:101820009361FFF793FF10BD9022D2059169802349
:101830001B020B439361B7E79022D2059169802385
:101840005B050B439361B8E7164A916980239B04BB
:101850000B439361B9E7134A916980235B040B43FF
:101860009361BAE79022D205916980231B060B434E
:101870009361BDE79022D205916980235B050B43FC
:101880009361BEE7074A916980239B040B439361F0
:10189000BFE7044A916980235B040B439361C0E76F
:1018A000000800480004004870B50500002403E06B
:1018B000FFF768FF0134E4B2285D0028F8D170BD5D
:1018C00010B50400474A91698023DB050B439361FF
:1018D00043B2002B49DB9022D205916980231B067D
:1018E0000B439361630648D59022D205916980230A
:1018F0005B010B439361A30647D53B4A9169802363
:101900009B000B439361E30646D5374A91698023D8
:101910005B000B439361FFF719FF230743D5902228
:10192000D205916980231B020B439361630742D563
:101930009022D205916980235B010B439361A30739
:1019400041D5294A916980239B000B439361E407A9
:1019500040D5254A916980235B000B439361FFF7D3
:10196000F5FE2248FFF7E2FE10BD9022D2059169F4
:1019700080231B020B439361B4E79022D205916947
:1019800080235B050B439361B5E7174A9169802378
:101990009B040B439361B6E7134A916980235B0470
:1019A0000B439361B7E79022D205916980231B0610
:1019B0000B439361BAE79022D205916980235B05BE
:1019C0000B439361BBE7084A916980239B040B4357
:1019D0009361BCE7044A916980235B040B439361E4
:1019E000BDE7C0460008004800040048B80B0000EE
:1019F00010B51B4B5969802292020A435A615969FA
:101A00008022D2020A435A615969802212030A4392
:101A10005A619022D20511688223DB050B431360C3
:101A2000104A1168A023DB020B4313600E4A1168B1
:101A3000A023DB050B4313600C48FFF777FE332030
:101A4000FFF73EFF3220FFF73BFF0C20FFF738FF88
:101A50002820FFF735FF0120FFF732FF10BDC046F9
:101A600000100240000400480008004830750000E3
:101A700010B5012800D010BDFEF7B6FC0C4B1B685A
:101A8000C01A0A2809D90B4B1A68FA235B009A423C
:101A900008D0084BFA2252001A60FEF7A5FC044B4E
:101AA0001860E8E7034BFA2292001A60F5E7C04697
:101AB000700000200800002010B504000448FFF763
:101AC00035FE0120FFF7FCFE2000FFF7EDFE10BD04
:101AD000B80B000010B5064C2000FEF7B7FDFA2148
:101AE00089002000FEF7E2FD2000FEF743FE10BD56
:101AF0003000002010B5034B58430349FEF72CFB80
:101B000010BDC0467FBB0000FF0F000010B5054CA4
:101B10002000FEF72FFE044B18602000FEF730FE79
:101B200010BDC046300000207400002072B6FEE7F1
:101B300010B5244A136801218B431360214B1B68A5
:101B4000DB07FBD4204A136801210B4313601E4BB3
:101B50001B689B07FBD51C4A1368F8218B43783917
:101B60000B431360536B7F390B435363164B5B6B13
:101B70009B07FBD5144B5A6BF8218A4378390A43EB
:101B80005A635A6870318A435A605A680F490A404A
:101B90005A605A6803218A435A600B4B5B680C22D7
:101BA0001A42FAD10A48FFF7E5FC0320FEF7D8FBFA
:101BB000002805D1044A536B04218B43536310BDA5
:101BC000FFF7B4FF0020024000100240FFF8FFFFC3
:101BD00000127A0070B584B0FEF7EAFBFFF7A8FFA9
:101BE000FFF73AFDFFF7CCFC00F0C4F8FFF790FDDB
:101BF000FFF7FEFE2348FEF7C7FE23480821FFF744
:101C000045FB32E00A212000FEF72CFB6E1CF6B2E9
:101C100001AB59551D4D0A212000FEF79DFA2860A1
:101C200035001A4B1C68002CECD13023029302AB18
:101C300000221A7100239D4209D9EA1A013A01A92A
:101C40008A5C303202A9CA540133DBB2F3E702A83E
:101C5000FFF732FFFFF73EFFFFF74CFF0A4B1B6811
:101C6000D8630B4B1868FEF7C5FB80210948FEF7C7
:101C7000FFFFFFF72FFF054B186001235B42019325
:101C80000025CEE7300000207800002074000020FE
:101C9000080000200004004882B00A4B9969012224
:101CA0001143996199690A400092009ADA6980218A
:101CB00049050A43DA61DB690B400193019B02B0DD
:101CC0007047C04600100240FEE7FEE770477047CD
:101CD00010B5FEF77DFB10BD10B50120FEF7D0FF5B
:101CE000034B5B69DB0702D5014B01225A6110BD32
:101CF000000401407047000082B00268074B9A421E
:101D000001D002B07047064AD16902231943D1615C
:101D1000D26913400193019BF3E7C04600040040E1
:101D20000010024010B586B004001422002101A862
:101D3000FEF79EFA22680C4B9A4201D006B010BD05
:101D40000A4B5A698021C9020A435A615B690B40F8
:101D50000093009B0123019302220292059301A9A3
:101D60000348FEF7C1FEE9E700040040001002400E
:101D70000004004800B58FB0102200210AA8FEF729
:101D800077FA0822002108A8FEF772FA1C22002127
:101D900001A8FEF76DFA2348234B0360002343603C
:101DA0008360224AC26003618361FFF7BFF80028A5
:101DB00028D180235B010A931A480AA9FFF7D4F9B6
:101DC000002822D11748FFF7DDF8002820D1002392
:101DD00008930993134808A9FFF7D6FA00281AD1E7
:101DE0006023019300230293039305930D48082277
:101DF00001A9FFF735F9002810D10A48FFF792FF33
:101E00000FB000BDFFF792FED3E7FFF78FFED9E7D3
:101E1000FFF78CFEDBE7FFF789FEE1E7FFF786FEC1
:101E2000EBE7C04678000020000400407FBB0000C4
:101E30000D488546FFF75EFF0C480D490D4A00230B
:101E400002E0D458C4500433C4188C42F9D30A4A6F
:101E50000A4C002301E013600432A242FBD3FEF7D8
:101E60005BFAFFF7B7FEFEE700200020000000202D
:101E700010000020A41E000810000020C000002058
:101E8000FEE70000F8B5C046F8BC08BC9E467047A7
:0C1E9000F8B5C046F8BC08BC9E46704780
:041E9C003501000804
:041EA000090100082C
:101EA4000100000004000000F401000000127A00A8
:0400000508001E31A0
:00000001FF
