:020000040800F2
:1000000000200020711F0008551D0008571D000822
:1000100000000000000000000000000000000000E0
:10002000000000000000000000000000591D000852
:1000300000000000000000005B1D00085D1D0008BE
:10004000C11F0008C11F0008C11F0008C11F000810
:10005000C11F0008651D0008C11F0008C11F00085E
:10006000C11F0008C11F0008C11F0008711D000842
:10007000C11F0008C11F0008C11F0008C11F0008E0
:10008000C11F0008C11F000800000000C11F0008B8
:10009000C11F0008C11F0008C11F0008C11F0008C0
:1000A000C11F0008C11F0008C11F0008C11F0008B0
:1000B000C11F000800000000C11F00080000000070
:1000C0000448054B10B5834203D0044B002B00D0ED
:1000D000984710BD100C0020100C002000000000FC
:1000E00006480749091A8B10C90FC91810B54910DD
:1000F00003D0044B002B00D0984710BD100C0020FB
:10010000100C00200000000010B5074C2378002BD5
:1001100009D1FFF7D5FF054B002B02D0044800E0C2
:1001200000BF0123237010BD100C00200000000050
:10013000C41F0008054B10B5002B03D00449054827
:1001400000E000BFFFF7CCFF10BDC046000000007C
:10015000140C0020C41F0008002243088B4274D3F3
:1001600003098B425FD3030A8B4244D3030B8B42B8
:1001700028D3030C8B420DD3FF22090212BA030CC1
:100180008B4202D31212090265D0030B8B4219D3A2
:1001900000E0090AC30B8B4201D3CB03C01A5241C2
:1001A000830B8B4201D38B03C01A5241430B8B420A
:1001B00001D34B03C01A5241030B8B4201D30B03F3
:1001C000C01A5241C30A8B4201D3CB02C01A52411A
:1001D000830A8B4201D38B02C01A5241430A8B42DD
:1001E00001D34B02C01A5241030A8B4201D30B02C6
:1001F000C01A5241CDD2C3098B4201D3CB01C01AE0
:10020000524183098B4201D38B01C01A52414309E9
:100210008B4201D34B01C01A524103098B4201D3D7
:100220000B01C01A5241C3088B4201D3CB00C01A44
:10023000524183088B4201D38B00C01A52414308BC
:100240008B4201D34B00C01A5241411A00D20146E1
:10025000524110467047FFE701B5002000F0F0F86A
:1002600002BDC0460029F7D076E7704703460B432E
:100270007FD4002243088B4274D303098B425FD39F
:10028000030A8B4244D3030B8B4228D3030C8B42CB
:100290000DD3FF22090212BA030C8B4202D31212B1
:1002A000090265D0030B8B4219D300E0090AC30B86
:1002B0008B4201D3CB03C01A5241830B8B4201D333
:1002C0008B03C01A5241430B8B4201D34B03C01A1C
:1002D0005241030B8B4201D30B03C01A5241C30A94
:1002E0008B4201D3CB02C01A5241830A8B4201D305
:1002F0008B02C01A5241430A8B4201D34B02C01AEF
:100300005241030A8B4201D30B02C01A5241CDD293
:10031000C3098B4201D3CB01C01A524183098B42DE
:1003200001D38B01C01A524143098B4201D34B01C7
:10033000C01A524103098B4201D30B01C01A52412A
:10034000C3088B4201D3CB00C01A524183088B42B1
:1003500001D38B00C01A524143088B4201D34B009A
:10036000C01A5241411A00D201465241104670470C
:100370005DE0CA0F00D04942031000D34042534011
:1003800000229C4603098B422DD3030A8B4212D3D1
:10039000FC22890112BA030A8B420CD38901921103
:1003A0008B4208D3890192118B4204D389013AD040
:1003B000921100E08909C3098B4201D3CB01C01A15
:1003C000524183098B4201D38B01C01A5241430928
:1003D0008B4201D34B01C01A524103098B4201D316
:1003E0000B01C01A5241C3088B4201D3CB00C01A83
:1003F000524183088B4201D38B00C01A5241D9D29B
:1004000043088B4201D34B00C01A5241411A00D21B
:100410000146634652415B10104601D34042002B17
:1004200000D54942704763465B1000D3404201B596
:10043000002000F005F802BD0029F8D016E770474B
:100440007047C046F0B50500830749D0541E002A06
:1004500045D003000326CAB202E00135013C3ED379
:1004600001332A703342F8D1032C30D9FF220A40DD
:100470001502AD182A04AD180F2C34D92700103FEF
:100480003F093E01B4461E001A001036664415604E
:1004900055609560D56010329642F8D101373F0122
:1004A000DB190F270C22274022403C00002A0ED0E7
:1004B0003E1FB608B400A4461A001C1D644420C2A6
:1004C000A242FCD103240136B6009B193C40002C0B
:1004D00005D0C9B21C19197001339C42FBD1F0BD83
:1004E00003001400C0E72700E2E7C04670B50D4BDB
:1004F0000D4D5E1BB610AB4205D0002408CD013473
:100500009847A642FAD801F05DFD084B084D5E1BE6
:10051000B610AB4205D0002408CD01349847A6425E
:10052000FAD870BD242000082420000828200008E4
:100530002420000810B504000F4B1978FA20800021
:10054000FFF70AFE01000D4B1868FFF705FE00F0EB
:1005500097F800280DD1032C01D901200AE00130C1
:1005600000222100404200F07BF8054B1C60002077
:1005700000E0012010BDC046000000200C0C00204F
:100580000400002010B5064A136810210B431360C5
:100590000320FFF7CFFF01F0C5FB002010BDC046D0
:1005A00000200240034A1168034B1B785B1813605C
:1005B0007047C0462C0C002000000020014B18683A
:1005C0007047C0462C0C002070B5002811DB830852
:1005D000134DC0339B005C5903221040C000FC3215
:1005E00016008640B44389010A40824022435A5192
:1005F00070BD0F230340083B9B0806339B00094A4C
:10060000944663445C6803221040C000FC3215002D
:100610008540AC4389010A40824022435A60E7E7A3
:1006200000E100E000ED00E0013880235B04984227
:100630000FD2094A50600948036A1B021B0AC021F5
:1006400009060B4303620023936007331360002005
:1006500070470120FCE7C04610E000E000ED00E03C
:1006600010B5FFF7B1FF10BD002805DB1F220240C7
:1006700001239340014A13607047C04600E100E047
:1006800010B5FFF7D1FF10BD70B5066CC56B012426
:10069000B4406C60046863604368102B04D0036846
:1006A00099600368DA6070BD03689A600368D96076
:1006B000F9E7000010B504000068054B9C46604453
:1006C0001421FFF749FD80002064024BE36310BD55
:1006D000F8FFFDBF0000024070B5041E20D02125A8
:1006E0000223435501680A680E4B1A40436880682C
:1006F0000343E06803432069034360690343A0693F
:100700000343E069034313430B602000FFF7D2FF6C
:100710000023A363012262551F32A354002070BD41
:100720000120FCE70FC0FFFF70B504002020205C13
:10073000012832D02020012525540130205C0128D9
:1007400004D020230022E254022070BD2030013565
:1007500025540020A063256828680126B04328603E
:100760002000FFF791FFE36A002B0BD0226813688B
:100770000E210B4313602268136801210B431360A1
:100780000020E2E7226813680A210B431360226805
:10079000136806398B431360EDE70220D5E710B5E7
:1007A0002123C35C022B03D004238363012010BDEB
:1007B000026813680E218B43136001680A680123E5
:1007C0009A430A60016CC26B1C008C405460212269
:1007D00083541F330022C254436B002B02D098472E
:1007E0000020E4E70020E2E770B5C36B1A680468F4
:1007F0002568016C04238B401A4212D06B0710D578
:1008000023689B0603D42368042293432360016C6E
:10081000C26B04238B405360C36A002B00D09847FF
:1008200070BD02238B401A4218D0AB0716D523683F
:100830009B0606D423680A22934323602123093AA6
:10084000C254016CC26B02238B40536020230022F0
:10085000C254836A002BE3D09847E1E708238B401A
:100860001A42DDD02D07DBD523680E229343236087
:10087000016CC26B01231C008C40546083632122F5
:1008800083541F330022C254036B002BC8D09847F7
:10089000C6E70000F0B583B0002356E086685F002D
:1008A0000324BC40A643CC68BC4034438460446805
:1008B00094434E683609012232409A4022434260F6
:1008C00053E0DE080836B600375805321A40920069
:1008D0000F249440A7430C69944022003A433250BD
:1008E00056E0032600E00026A64034003C430232D6
:1008F0009200444E9451444A9768EA433E00AE4306
:100900004C68E40201D53E002E433F4CA660E768E8
:100910003E0016404C68A40201D53E002E433A4CDE
:10092000E66067683E0016404C68A40301D53E00AF
:100930002E43354C6660266832404C68E40301D58E
:100940002A003243304C226001330C682200DA4026
:1009500056D001229A40250015401442F4D04E682A
:1009600003243440013C012C98D94C6803222240D6
:10097000032A08D0C4685E000322B24094438A6808
:10098000B2402243C2604C6803222240022A98D01F
:1009900004685E0003221700B740BC434F683A402A
:1009A000B240224302604C68C02292021442CBD073
:1009B000164CA66901221643A661A4692240019241
:1009C000019A9A08941CA4000E4EA75903241C40B7
:1009D000A4000F26A640B7439026F605B04282D069
:1009E0000B4EB04208D00B4EB04207D00A4EB04278
:1009F00000D176E7052677E7012675E7022673E73B
:100A000003B0F0BD000001400004014000100240AE
:100A10000004004800080048000C004810B5054BD1
:100A20005B69184200D110BD024B586101F0A2F879
:100A3000F9E7C0460004014070B582B0041E00D141
:100A40002EE20368DB0726D5AE4B5A680C23134011
:100A5000042B18D0AB4B5A680C231340082B0ED034
:100A60006368012B3CD0002B51D1A64B1A68A649D4
:100A70000A401A601A68A5490A401A6036E0A14B7C
:100A80005B68DB03ECD59F4B1B689B0303D5636856
:100A9000002B00D107E223689B0772D5994B5B6856
:100AA0000C221A425DD0974B5A680C231340082B36
:100AB00053D0E368002B00D185E0924A13680121EE
:100AC0000B431360FFF77AFD05008E4B1B689B07F5
:100AD00070D4FFF773FD401B0228F6D90320E0E134
:100AE000884A116880235B020B4313606368002B04
:100AF00025D0FFF763FD0500824B1B689B03CAD41A
:100B0000FFF75CFD401B6428F6D90320C9E1052BE3
:100B100009D07C4B1A687C490A401A601A687B49E4
:100B20000A401A60E2E7774B19688022D2020A4332
:100B30001A601968802252020A431A60D6E7FFF74A
:100B40003DFD05006F4B1B689B03A4D5FFF736FDE9
:100B5000401B6428F6D90320A3E16A4B5B68DB03E2
:100B6000A7D4684B1B689B0703D5E368012B00D013
:100B70009BE164490B68F82293432269D200134336
:100B80000B6023681B0744D5E369002B2ED05D4A18
:100B9000536A01210B435362FFF710FD0500594BC7
:100BA0005B6A9B0735D4FFF709FD401B0228F6D985
:100BB000032076E153490B68F82293432269D2005F
:100BC00013430B60DDE74F4A136801218B43136029
:100BD000FFF7F4FC05004B4B1B689B07D1D5FFF7D3
:100BE000EDFC401B0228F6D903205AE1454A536A1E
:100BF00001218B435362FFF7E1FC0500414B5B6A27
:100C00009B0706D5FFF7DAFC401B0228F6D9032024
:100C100047E123685B0700D480E03A4BDB69DB00E7
:100C20001DD4384BDA69802149050A43DA61DB6952
:100C30000B400193019B0125354B1B68DB0510D54B
:100C4000A368012B21D0002B36D12E4B1A6A01212B
:100C50008A431A621A6A03318A431A621AE000252B
:100C6000EAE72B4A116880235B000B431360FFF710
:100C7000A5FC0600264B1B68DB05E1D4FFF79EFCB4
:100C8000801B6428F6D903200BE11E4A136A012158
:100C90000B431362A368002B24D0FFF78FFC0600E0
:100CA000184B1B6A9B0737D4FFF788FC801B194B36
:100CB0009842F5D90320F4E0052B09D0114B1A6AAC
:100CC00001218A431A621A6A03318A431A62E1E7F0
:100CD0000C4B1A6A04210A431A621A6A03390A433E
:100CE0001A62D7E7FFF76AFC0600064B1B6A9B07F0
:100CF00012D5FFF763FC801B064B9842F5D9032001
:100D0000CFE0C04600100240FFFFFEFFFFFFFBFFE9
:100D10000070004088130000012D33D02368DB06EB
:100D200010D56369012B33D0053351D1654A536B1C
:100D300004218B435363536BF4318B43A169C90086
:100D40000B435363236A002B00D1B0E05D4A516826
:100D50000C220A40082A00D18AE0022B4FD0594ABF
:100D6000136859490B401360FFF728FC0400554BEA
:100D70001B689B017AD5FFF721FC001B0228F6D9DE
:100D800003208EE04F4AD36950490B40D361C5E739
:100D90004C4B5A6B04210A435A635A6B03390A437A
:100DA0005A63FFF70BFC0500464B5B6B9B0706D4B1
:100DB000FFF704FC401B0228F6D9032071E04149EB
:100DC0004B6BF8229343A269D20013434B63B9E7FC
:100DD0003C4B5A6B04210A435A635A6B03398A43CA
:100DE0005A63FFF7EBFB0500364B5B6B9B07A9D5FE
:100DF000FFF7E4FB401B0228F6D9032051E0314AFB
:100E0000136831490B401360FFF7D8FB05002D4BE9
:100E10001B689B0106D5FFF7D1FB401B0228F6D9C2
:100E200003203EE0274BDA6A0F218A43E16A0A4336
:100E3000DA625A6826490A40A16A606A01430A4395
:100E40005A601968802252040A431A60FFF7B6FB01
:100E500004001C4B1B689B0106D4FFF7AFFB001B73
:100E60000228F6D903201CE000201AE0002018E038
:100E7000012B1ED0134B5A68D86A80235B021340A3
:100E8000616A8B4217D10F230340E16A8B4214D170
:100E9000F0239B031A40A36A9A4210D1002000E07D
:100EA000012002B070BD0120FBE70120F9E700201E
:100EB000F7E70120F5E70120F3E70120F1E7012042
:100EC000EFE7C04600100240FFFFFFFEFFFFFFEF0D
:100ED000FFFFC2FF10B5104B5A680C231340082BBC
:100EE00001D00E4810BD910C073319400C48445CEA
:100EF0000949C96A0B400B49C95CD20304D50748AC
:100F0000FFF72AF96043EDE76201121B93019B1A78
:100F1000DB001B191802E5E70010024000127A00FE
:100F2000EC1F0008DC1F000870B504000D0000284D
:100F300000D17EE0434B1A68012313408B420AD252
:100F400040490B68012293432B430B600B681A4006
:100F5000AA4200D06FE023689A070ED55B0705D53B
:100F6000394A5168E023DB000B435360364A53682B
:100F7000F0218B43A1680B4353602368DB072DD519
:100F80006368012B1ED0022B22D02F4A12689207D1
:100F900053D52D494A680320824313434B60FFF722
:100FA0000DFB0600284B5B680C221A4063689B000F
:100FB0009A4213D0FFF702FB801B244B9842F1D9D1
:100FC000032035E0204A12689203E2D401202FE08A
:100FD0001D4A12689201DCD4012029E0194B1A68DD
:100FE00001231340AB4209D916490B6801229343F0
:100FF0002B430B600B681A40AA4220D123685B0781
:1010000006D5114A536812490B40E1680B435360FF
:10101000FFF760FF0C4B5A6812090F2313400D4A6B
:10102000D35CD8400C4B18600320FFF783FA0020F4
:1010300070BD0120FCE70120FAE70120F8E701205C
:10104000F6E7C0460020024000100240881300006E
:10105000FFF8FFFF142000080C0C002030B5036AD5
:10106000012293430362056A426883697324A343A0
:101070000C681C4302239D438B682B43154DA842EB
:1010800008D0154DA84205D0144DA84202D0144DE9
:10109000A84206D10825AB431D00CB682B4304258D
:1010A000AB430C4DA84208D00B4DA84205D00B4DC8
:1010B000A84202D00A4DA84205D10A4D2A404D69E6
:1010C00015438A692A43426084614A684263036225
:1010D00030BDC046002C01400040014000440140AA
:1010E00000480140FFFCFFFF30B5036A184A134077
:1010F0000362046A4268C3697325AB430D681D43EC
:10110000144B1C408B681B022343134CA04209D094
:10111000124CA0420DD0124CA0420AD0114CA04259
:101120000FD106E0104C1C40CB681B0223430F4C30
:1011300023400F4C22404C69240114438A69120158
:1011400022434260C5614A68C263036230BDC04643
:10115000FFFEFFFFFFFDFFFF002C014000400140AC
:101160000044014000480140FFF7FFFFFFFBFFFF85
:10117000FFCFFFFF30B5036A134A13400362046ACE
:101180004368C269114D2A400D682D021543104A6B
:1011900014408A68120322430E4CA04208D00E4C21
:1011A000A04205D00D4CA04202D00D4CA04204D16B
:1011B0000C4C1C404B699B0123434360C5614B6849
:1011C0000364026230BDC046FFEFFFFFFF8CFFFFEC
:1011D000FFDFFFFF002C01400040014000440140C0
:1011E00000480140FFBFFFFF0368214A904206D03C
:1011F0008022D205904202D01E4A904203D1702232
:1012000093434A6813431A4A904212D08022D2056F
:1012100090420ED0174A90420BD0174A904208D005
:10122000164A904205D0164A904202D0154A904282
:1012300003D1154A1A40CB681343802293434A696D
:10124000134303608B68C3620B688362084B984248
:1012500008D00A4B984205D0094B984202D0094B5E
:10126000984201D10B690363012343617047C04673
:10127000002C0140000400400020004000400140DC
:101280000044014000480140FFFCFFFF70B5041E10
:1012900026D03D23C35C002B1CD03D250223635583
:1012A000210001C9FFF7A0FF01234622A354083AF9
:1012B000A3540132A3540132A3540132A354013286
:1012C000A3540132A3540132A3540132A3546355F1
:1012D000002070BD3C330022C25400F091FDDCE7D9
:1012E0000120F6E770B5041E26D03D23C35C002B19
:1012F0001CD03D2502236355210001C9FFF774FF6F
:1013000001234622A354083AA3540132A3540132C4
:10131000A3540132A3540132A3540132A354013225
:10132000A3540132A3546355002070BD3C33002206
:10133000C25400F09BFDDCE70120F6E770B5036ABC
:10134000102293430362026A44688369164D2B405E
:101350000D682D021D4320239A438B681B01134304
:10136000124A904209D0124A90420ED0114A90423D
:101370000BD0114A904210D107E0802293431E0007
:10138000CB681B013343403A93430C4A14404A69EB
:10139000920022438C69A4001443446085614A682A
:1013A0008263036270BDC046FF8CFFFF002C0140CA
:1013B000004001400044014000480140FFF3FFFFAE
:1013C00010B504003C23C35C012B24D03C23012036
:1013D000E054082A1AD008D8002A0FD0042A11D1C4
:1013E0002068FFF7ABFF00200CE00C2A04D1206836
:1013F000FFF7C0FE002005E0012003E02068FFF7B2
:101400002DFE00203C230022E25410BD2068FFF78F
:101410006BFE0020F6E70220F7E7000070B504003D
:101420000D003C23C35C012B00D16AE03C23012169
:10143000C154082A50D01CD8002A35D0042A16D10D
:1014400000682900FFF77AFF2268916980231B0159
:101450000B439361226893692B490B409361216888
:101460008B692A69120213438B61002030E001204E
:101470002EE00C2A16D100682900FFF77BFE2268B7
:10148000D16980231B010B43D3612268D3691E49B4
:101490000B40D3612168CB692A6912021343CB61E7
:1014A000002015E0012013E000682900FFF7D6FDB9
:1014B0002268936908210B43936122689369043978
:1014C0008B4393612268936929690B4393610020E0
:1014D0003C230022E25470BD00682900FFF704FE9F
:1014E0002268D36908210B43D3612268D369043988
:1014F0008B43D3612268D36929690B43D3610020F0
:10150000E6E70220E7E7C046FFFBFFFF10B51F2319
:10151000194001248C40036AA3430362036A8A4092
:101520001343036210BD000010B50400002936D13A
:101530003E23C35C013B5A1E9341DBB2002B62D1B8
:10154000002945D13E330222E25420680122FFF7F0
:10155000DDFF23682E4A934208D02E4A934205D0DD
:101560002D4A934202D02D4A934204D1596C8022D5
:1015700012020A435A642368254A934238D08022D3
:10158000D205934234D0264A934231D0214A934225
:101590002ED01A6801210A431A60002034E0042981
:1015A00008D008290DD04123C35C013B5A1E93414A
:1015B000DBB2C3E73F23C35C013B5A1E9341DBB25E
:1015C000BCE74023C35C013B5A1E9341DBB2B5E745
:1015D000042905D0082907D041230222E254B4E7A8
:1015E0003F230222E254B0E740230222E254ACE758
:1015F000996807220A40062A07D01A6801210A437F
:101600001A60002000E0012010BD0020FCE7C04669
:10161000002C0140004001400044014000480140CE
:101620000004004010B50400002936D13E23C35CFD
:10163000013B5A1E9341DBB2002B62D1002945D1F8
:101640003E330222E25420680122FFF75FFF236845
:101650002E4A934208D02E4A934205D02D4A9342F7
:1016600002D02D4A934204D1596C802212020A43BF
:101670005A642368254A934238D08022D205934287
:1016800034D0264A934231D0214A93422ED01A6850
:1016900001210A431A60002034E0042908D00829F7
:1016A0000DD04123C35C013B5A1E9341DBB2C3E71B
:1016B0003F23C35C013B5A1E9341DBB2BCE740238E
:1016C000C35C013B5A1E9341DBB2B5E7042905D048
:1016D000082907D041230222E254B4E73F23022223
:1016E000E254B0E740230222E254ACE799680722B3
:1016F0000A40062A07D01A6801210A431A6000200E
:1017000000E0012010BD0020FCE7C046002C014095
:1017100000400140004401400048014000040040F6
:1017200030B53C23C35C012B28D03C230122C2549A
:1017300001330132C25403685C689D686E32944381
:101740000A6822435A6003680D4A934209D08022F6
:10175000D205934205D00B4A934202D00A4A9342E3
:1017600004D1802295434A682A439A603D2301228E
:10177000C254013B0022C254002030BD0220FCE7CD
:10178000002C0140000400400040014082B0054AA6
:101790005169012319435161526913400193019B1F
:1017A00002B070470010024000B589B01422002139
:1017B00003A8FEF747FE144B5A698021C9030A4368
:1017C0005A615A690A400092009A5A698021890236
:1017D0000A435A615A690A400192019A5A69802162
:1017E000C9020A435A615B690B400293029B0123C1
:1017F00003938822520304920593902003A9C00505
:10180000FFF748F809B000BD0010024010B50022F3
:1018100000210B20FEF724FF0B20FEF725FF0022FE
:1018200001210520FEF71CFF0520FEF71DFF10BD5E
:1018300082B0430018180023019304E0C046C0465C
:10184000019B01330193019B8342F7D302B07047A0
:1018500070B51420FFF7ECFF0A4CA36980252D0218
:101860002B43A3611420FFF7E3FFA26980231B062B
:101870001343A3611420FFF7DBFFA3691D43A56198
:1018800070BDC0460008004810B50400454A916983
:101890008023DB010B43936143B2002B46DB902294
:1018A000D205916980231B060B439361630645D5DE
:1018B0009022D205916980235B010B439361A306BB
:1018C00044D5394A916980239B000B439361E30619
:1018D00043D5354A916980235B000B439361FFF741
:1018E000B7FF230740D59022D205916980231B02C0
:1018F0000B43936163073FD59022D2059169802302
:101900005B010B439361A3073ED5274A916980236E
:101910009B000B439361E4073DD5234A91698023E3
:101920005B000B439361FFF793FF10BD9022D2053C
:10193000916980231B020B439361B7E79022D20584
:10194000916980235B050B439361B8E7164A91695F
:1019500080239B040B439361B9E7134A9169802369
:101960005B040B439361BAE79022D205916980230F
:101970001B060B439361BDE79022D205916980233A
:101980005B050B439361BEE7074A916980239B0483
:101990000B439361BFE7044A916980235B040B43C7
:1019A0009361C0E7000800480004004870B50500D6
:1019B000002403E0FFF768FF0134E4B2285D00284B
:1019C000F8D170BD10B50400474A91698023DB054A
:1019D0000B43936143B2002B49DB9022D2059169FE
:1019E00080231B060B439361630648D59022D205E2
:1019F000916980235B010B439361A30647D53B4A62
:101A0000916980239B000B439361E30646D5374AD7
:101A1000916980235B000B439361FFF719FF230754
:101A200043D59022D205916980231B020B43936119
:101A3000630742D59022D205916980235B010B4355
:101A40009361A30741D5294A916980239B000B43E9
:101A50009361E40740D5254A916980235B000B43DD
:101A60009361FFF7F5FE2248FFF7E2FE10BD9022DA
:101A7000D205916980231B020B439361B4E7902246
:101A8000D205916980235B050B439361B5E7174A43
:101A9000916980239B040B439361B6E7134A9169D4
:101AA00080235B040B439361B7E79022D2059169D1
:101AB00080231B060B439361BAE79022D2059169FC
:101AC00080235B050B439361BBE7084A9169802340
:101AD0009B040B439361BCE7044A916980235B0438
:101AE0000B439361BDE7C04600080048000400486E
:101AF000B80B000010B51B4B5969802292020A43B3
:101B00005A6159698022D2020A435A615969802276
:101B100012030A435A619022D20511688223DB0521
:101B20000B431360104A1168A023DB020B431360C0
:101B30000E4A1168A023DB050B4313600C48FFF726
:101B400077FE3320FFF73EFF3220FFF73BFF0C20EC
:101B5000FFF738FF2820FFF735FF0120FFF732FF9E
:101B600010BDC046001002400004004800080048B4
:101B70003075000010B5012800D010BDFEF71EFD25
:101B8000264B1B68C01A0A2804D8FEF717FD234B02
:101B90001860F2E7224C207801300321FEF74CFC5C
:101BA0002170204B1A68D3681F490B40D3601F482F
:101BB000FEF7F5FD0120FFF705FF2378012B14D078
:101BC000022B1ED080231A4A12681A4917485B005C
:101BD000FEF7AAFD1848FFF7E9FE124B1A68D16814
:101BE00080239B000B43D360CFE78023104A126809
:101BF00012490E485B00FEF797FD1148FFF7D6FE2D
:101C0000EBE780230A4A12680E4908485B00FEF79A
:101C10008BFD0D48FFF7CAFEDFE7C046300C002001
:101C2000340C0020C40C0020FFFDFFFF380C002006
:101C3000080000200C080020FC1F00080C000020F9
:101C4000042000080C0400201020000872B6FEE7F3
:101C500000B591B03022002104A8FEF7F3FB10225A
:101C600000216846FEF7EEFB02230493013B079335
:101C70000F33089304A8FEF7DFFE00280DD10723D9
:101C80000093002301930293039300216846FFF71A
:101C90004BF9002803D111B000BDFFF7D7FFFFF7C4
:101CA000D5FF000010B5FEF76DFCFFF723FFFFF72F
:101CB000CFFFFFF779FDFFF769FD00F063F800F053
:101CC00013F9FFF7A3FD10480821FFF7ABFC0F4CF9
:101CD00000212000FFF728FC80230D4A12680D49DF
:101CE0000D485B00FEF720FD0C48FFF7A1FD012029
:101CF000FFF768FE0A48FFF759FE2268D168802383
:101D00009B000B43D360FEE77C0C0020C40C00203A
:101D1000080000200C080020380C0020B80B000040
:101D2000FC1F000882B00A4B996901221143996196
:101D300099690A400092009ADA69802149050A43AC
:101D4000DA61DB690B400193019B02B07047C0462A
:101D500000100240FEE7FEE77047704710B5FEF73F
:101D600021FC10BD10B50120FEF758FE10BD00008B
:101D700010B50248FEF738FD10BDC046380C0020F3
:101D80007047000000B58BB00822002108A8FEF7BC
:101D900059FB1C22002101A8FEF754FB17488023A1
:101DA000DB0503600023436083606422C26003613B
:101DB0008361FFF76BFA002816D10023089309937B
:101DC0000E4808A9FFF7ACFC002810D100230193AE
:101DD0000293039305930948002201A9FFF7F0FA43
:101DE000002807D10BB000BDFFF730FFE5E7FFF794
:101DF0002DFFEBE7FFF72AFFF4E7C046C40C0020F5
:101E000010B582B0040002688023DB059A4201D03D
:101E100002B010BD124AD16901231943D161D269C0
:101E200013400193019B0F480F4B03601023436045
:101E3000002383608022C2608132FF3202618022EF
:101E40001201426120228261C361FEF745FC002835
:101E500003D1044B63625C62DAE7FFF7F7FEF8E751
:101E600000100240380C00205800024082B0026886
:101E7000074B9A4201D002B07047064AD16902234B
:101E80001943D161D26913400193019BF3E7C04626
:101E9000000400400010024010B586B00400142277
:101EA000002101A8FEF7CEFA22680C4B9A4201D01D
:101EB00006B010BD0A4B5A698021C9020A435A6113
:101EC0005B690B400093009B012301930222029265
:101ED000059301A90348FEF7DDFCE9E70004004093
:101EE000001002400004004800B58BB00822002119
:101EF00008A8FEF7A7FA1C22002101A8FEF7A2FA03
:101F00001848194B0360002343608360174AC2607E
:101F100003618361FFF7E6F900281AD100230893D3
:101F20000993104808A9FFF7FBFB002814D1602390
:101F3000019300230293039305930A48082201A901
:101F4000FFF76CFA00280AD10648FFF7A5FF0BB08F
:101F500000BDFFF77BFEE1E7FFF778FEE7E7FFF75D
:101F600075FEF1E77C0C002000040040FF03000038
:101F70000D488546FFF704FF0C480D490D4A002324
:101F800002E0D458C4500433C4188C42F9D30A4A2E
:101F90000A4C002301E013600432A242FBD3FEF797
:101FA000A5FAFFF77FFEFEE70020002000000020DA
:101FB000100C00202C200008100C00200C0D00201C
:101FC000FEE70000F8B5C046F8BC08BC9E46704766
:0C1FD000F8B5C046F8BC08BC9E4670473F
:101FDC000102030405060708090A0B0C0D0E0F106D
:101FEC0002030405060708090A0B0C0D0E0F10104E
:101FFC0053696E6500000000547269616E676C6510
:10200C000000000053617700000000000000000099
:08201C00010203040607080994
:04202400350100087A
:0420280009010008A2
:10202C0001000000040000003C040040000000001F
:10203C00070000000F000000170000001F00000048
:10204C00270000002F000000370000003F000000B8
:10205C00470000004F000000570000005F00000028
:10206C00670000006F000000770000007F00000098
:10207C00870000008F000000970000009F00000008
:10208C00A7000000AF000000B7000000BF00000078
:10209C00C7000000CF000000D7000000DF000000E8
:1020AC00E7000000EF000000F7000000FF00000058
:1020BC00070100000F010000170100001F010000C4
:1020CC00270100002F010000370100003F01000034
:1020DC00470100004F010000570100005F010000A4
:1020EC00670100006F010000770100007F01000014
:1020FC00870100008F010000970100009F01000084
:10210C00A7010000AF010000B7010000BF010000F3
:10211C00C7010000CF010000D7010000DF01000063
:10212C00E7010000EF010000F7010000FF010000D3
:10213C00070200000F020000170200001F0200003F
:10214C00270200002F020000370200003F020000AF
:10215C00470200004F020000570200005F0200001F
:10216C00670200006F020000770200007F0200008F
:10217C00870200008F020000970200009F020000FF
:10218C00A7020000AF020000B7020000BF0200006F
:10219C00C7020000CF020000D7020000DF020000DF
:1021AC00E7020000EF020000F7020000FF0200004F
:1021BC00070300000F030000170300001F030000BB
:1021CC00270300002F030000370300003F0300002B
:1021DC00470300004F030000570300005F0300009B
:1021EC00670300006F030000770300007F0300000B
:1021FC00870300008F030000970300009F0300007B
:10220C00A7030000AF030000B7030000BF030000EA
:10221C00C7030000CF030000D7030000DF0300005A
:10222C00E7030000EF030000F7030000F7030000D2
:10223C00EF030000E7030000DF030000D7030000FA
:10224C00CF030000C7030000BF030000B70300006A
:10225C00AF030000A70300009F03000097030000DA
:10226C008F030000870300007F030000770300004A
:10227C006F030000670300005F03000057030000BA
:10228C004F030000470300003F030000370300002A
:10229C002F030000270300001F030000170300009A
:1022AC000F03000007030000FF020000F70200000C
:1022BC00EF020000E7020000DF020000D70200007E
:1022CC00CF020000C7020000BF020000B7020000EE
:1022DC00AF020000A70200009F020000970200005E
:1022EC008F020000870200007F02000077020000CE
:1022FC006F020000670200005F020000570200003E
:10230C004F020000470200003F02000037020000AD
:10231C002F020000270200001F020000170200001D
:10232C000F02000007020000FF010000F70100008F
:10233C00EF010000E7010000DF010000D701000001
:10234C00CF010000C7010000BF010000B701000071
:10235C00AF010000A70100009F01000097010000E1
:10236C008F010000870100007F0100007701000051
:10237C006F010000670100005F01000057010000C1
:10238C004F010000470100003F0100003701000031
:10239C002F010000270100001F01000017010000A1
:1023AC000F01000007010000FF000000F700000013
:1023BC00EF000000E7000000DF000000D700000085
:1023CC00CF000000C7000000BF000000B7000000F5
:1023DC00AF000000A70000009F0000009700000065
:1023EC008F000000870000007F00000077000000D5
:1023FC006F000000670000005F0000005700000045
:10240C004F000000470000003F00000037000000B4
:10241C002F000000270000001F0000001700000024
:10242C000F0000000700000000000000000000008A
:10243C0003000000070000000B0000000F0000006C
:10244C0013000000170000001B0000001F0000001C
:10245C0023000000270000002B0000002F000000CC
:10246C0033000000370000003B0000003F0000007C
:10247C0043000000470000004B0000004F0000002C
:10248C0053000000570000005B0000005F000000DC
:10249C0063000000670000006B0000006F0000008C
:1024AC0073000000770000007B0000007F0000003C
:1024BC0083000000870000008B0000008F000000EC
:1024CC0093000000970000009B0000009F0000009C
:1024DC00A3000000A7000000AB000000AF0000004C
:1024EC00B3000000B7000000BB000000BF000000FC
:1024FC00C3000000C7000000CB000000CF000000AC
:10250C00D3000000D7000000DB000000DF0000005B
:10251C00E3000000E7000000EB000000EF0000000B
:10252C00F3000000F7000000FB000000FF000000BB
:10253C0003010000070100000B0100000F01000067
:10254C0013010000170100001B0100001F01000017
:10255C0023010000270100002B0100002F010000C7
:10256C0033010000370100003B0100003F01000077
:10257C0043010000470100004B0100004F01000027
:10258C0053010000570100005B0100005F010000D7
:10259C0063010000670100006B0100006F01000087
:1025AC0073010000770100007B0100007F01000037
:1025BC0083010000870100008B0100008F010000E7
:1025CC0093010000970100009B0100009F01000097
:1025DC00A3010000A7010000AB010000AF01000047
:1025EC00B3010000B7010000BB010000BF010000F7
:1025FC00C3010000C7010000CB010000CF010000A7
:10260C00D3010000D7010000DB010000DF01000056
:10261C00E3010000E7010000EB010000EF01000006
:10262C00F3010000F7010000FB010000FF010000B6
:10263C0003020000070200000B0200000F02000062
:10264C0013020000170200001B0200001F02000012
:10265C0023020000270200002B0200002F020000C2
:10266C0033020000370200003B0200003F02000072
:10267C0043020000470200004B0200004F02000022
:10268C0053020000570200005B0200005F020000D2
:10269C0063020000670200006B0200006F02000082
:1026AC0073020000770200007B0200007F02000032
:1026BC0083020000870200008B0200008F020000E2
:1026CC0093020000970200009B0200009F02000092
:1026DC00A3020000A7020000AB020000AF02000042
:1026EC00B3020000B7020000BB020000BF020000F2
:1026FC00C3020000C7020000CB020000CF020000A2
:10270C00D3020000D7020000DB020000DF02000051
:10271C00E3020000E7020000EB020000EF02000001
:10272C00F3020000F7020000FB020000FF020000B1
:10273C0003030000070300000B0300000F0300005D
:10274C0013030000170300001B0300001F0300000D
:10275C0023030000270300002B0300002F030000BD
:10276C0033030000370300003B0300003F0300006D
:10277C0043030000470300004B0300004F0300001D
:10278C0053030000570300005B0300005F030000CD
:10279C0063030000670300006B0300006F0300007D
:1027AC0073030000770300007B0300007F0300002D
:1027BC0083030000870300008B0300008F030000DD
:1027CC0093030000970300009B0300009F0300008D
:1027DC00A3030000A7030000AB030000AF0300003D
:1027EC00B3030000B7030000BB030000BF030000ED
:1027FC00C3030000C7030000CB030000CF0300009D
:10280C00D3030000D7030000DB030000DF0300004C
:10281C00E3030000E7030000EB030000EF030000FC
:10282C00F3030000F7030000FB03000000020000AC
:10283C000C02000019020000250200003202000008
:10284C003E0200004B020000570200006302000031
:10285C00700200007C02000088020000940200005C
:10286C00A0020000AC020000B8020000C30200008D
:10287C00CF020000DA020000E6020000F1020000C4
:10288C00FC02000007030000110300001C03000001
:10289C0026030000300300003A030000440300004C
:1028AC004E03000057030000610300006A030000A0
:1028BC00720300007B030000830300008B03000005
:1028CC00930300009B030000A2030000A903000077
:1028DC00B0030000B7030000BD030000C3030000F9
:1028EC00C9030000CE030000D4030000D90300008C
:1028FC00DD030000E2030000E6030000E903000032
:10290C00ED030000F0030000F3030000F6030000E9
:10291C00F8030000FA030000FC030000FD030000B4
:10292C00FE030000FF030000FF0300000004000092
:10293C00FF030000FF030000FE030000FD03000086
:10294C00FC030000FA030000F8030000F60300008B
:10295C00F3030000F0030000ED030000E9030000A6
:10296C00E6030000E2030000DD030000D9030000D1
:10297C00D4030000CE030000C9030000C303000011
:10298C00BD030000B7030000B0030000A903000062
:10299C00A20300009B030000930300008B030000C4
:1029AC00830300007B030000720300006A03000035
:1029BC0061030000570300004E03000044030000B5
:1029CC003A03000030030000260300001C03000043
:1029DC001103000007030000FC020000F1020000DC
:1029EC00E6020000DA020000CF020000C302000081
:1029FC00B8020000AC020000A0020000940200002B
:102A0C00880200007C0200007002000063020000DB
:102A1C00570200004B0200003E0200003202000090
:102A2C0025020000190200000C0200000002000048
:102A3C00F3010000E6010000DA010000CD01000006
:102A4C00C1010000B4010000A80100009C010000BD
:102A5C008F01000083010000770100006B01000072
:102A6C005F01000053010000470100003C01000021
:102A7C003001000025010000190100000E010000CA
:102A8C0003010000F8000000EE000000E30000006D
:102A9C00D9000000CF000000C5000000BB00000002
:102AAC00B1000000A80000009E000000950000008E
:102ABC008D000000840000007C0000007400000009
:102ACC006C000000640000005D0000005600000077
:102ADC004F00000048000000420000003C000000D5
:102AEC0036000000310000002B0000002600000022
:102AFC00220000001D00000019000000160000005C
:102B0C00120000000F0000000C0000000900000083
:102B1C000700000005000000030000000200000098
:102B2C000100000000000000000000000000000098
:102B3C000000000000000000010000000200000086
:102B4C000300000005000000070000000900000061
:102B5C000C0000000F000000120000001600000026
:102B6C00190000001D0000002200000026000000DB
:102B7C002B00000031000000360000003C0000007B
:102B8C0042000000480000004F000000560000000A
:102B9C005D000000640000006C0000007400000088
:102BAC007C000000840000008D00000095000000F7
:102BBC009E000000A8000000B1000000BB00000057
:102BCC00C5000000CF000000D9000000E3000000A9
:102BDC00EE000000F8000000030100000E010000F0
:102BEC001901000025010000300100003C0100002B
:102BFC0047010000530100005F0100006B01000061
:102C0C0077010000830100008F0100009C0100008F
:102C1C00A8010000B4010000C1010000CD010000BA
:102C2C00DA010000E6010000F301000000127A0056
:0400000508001F715F
:00000001FF
