:020000040800F2
:1000000000200020391800081D1600081F160008DF
:1000100000000000000000000000000000000000E0
:100020000000000000000000000000002116000891
:10003000000000000000000023160008251600083C
:10004000891800088918000889180008891800080C
:10005000891800082D16000889180008891800085A
:10006000891800088918000889180008391600083E
:1000700089180008891800088918000889180008DC
:100080008918000889180008000000008918000875
:1000900089180008891800088918000889180008BC
:1000A00089180008891800088918000889180008AC
:1000B00089180008000000008918000800000000EE
:1000C0000448054B10B5834203D0044B002B00D0ED
:1000D000984710BD0C0000200C000020000000001C
:1000E00006480749091A8B10C90FC91810B54910DD
:1000F00003D0044B002B00D0984710BD0C0000200B
:100100000C0000200000000010B5074C2378002BE5
:1001100009D1FFF7D5FF054B002B02D0044800E0C2
:1001200000BF0123237010BD0C0000200000000060
:100130008C180008054B10B5002B03D00449054866
:1001400000E000BFFFF7CCFF10BDC046000000007C
:10015000100000208C180008002243088B4274D342
:1001600003098B425FD3030A8B4244D3030B8B42B8
:1001700028D3030C8B420DD3FF22090212BA030CC1
:100180008B4202D31212090265D0030B8B4219D3A2
:1001900000E0090AC30B8B4201D3CB03C01A5241C2
:1001A000830B8B4201D38B03C01A5241430B8B420A
:1001B00001D34B03C01A5241030B8B4201D30B03F3
:1001C000C01A5241C30A8B4201D3CB02C01A52411A
:1001D000830A8B4201D38B02C01A5241430A8B42DD
:1001E00001D34B02C01A5241030A8B4201D30B02C6
:1001F000C01A5241CDD2C3098B4201D3CB01C01AE0
:10020000524183098B4201D38B01C01A52414309E9
:100210008B4201D34B01C01A524103098B4201D3D7
:100220000B01C01A5241C3088B4201D3CB00C01A44
:10023000524183088B4201D38B00C01A52414308BC
:100240008B4201D34B00C01A5241411A00D20146E1
:10025000524110467047FFE701B5002000F006F854
:1002600002BDC0460029F7D076E770477047C04608
:10027000F0B50500830749D0541E002A45D003007D
:100280000326CAB202E00135013C3ED301332A7095
:100290003342F8D1032C30D9FF220A401502AD18A1
:1002A0002A04AD180F2C34D92700103F3F093E0116
:1002B000B4461E001A0010366644156055609560FD
:1002C000D56010329642F8D101373F01DB190F2774
:1002D0000C22274022403C00002A0ED03E1FB608C8
:1002E000B400A4461A001C1D644420C2A242FCD1E2
:1002F00003240136B6009B193C40002C05D0C9B23E
:100300001C19197001339C42FBD1F0BD030014008D
:10031000C0E72700E2E7C04670B50D4B0D4D5E1BF0
:10032000B610AB4205D0002408CD01349847A64250
:10033000FAD801F0ABFA084B084D5E1BB610AB4281
:1003400005D0002408CD01349847A642FAD870BDE4
:10035000D4180008D4180008D8180008D4180008C9
:1003600010B504000F4B1978FA208000FFF7F4FE57
:1003700001000D4B1868FFF7EFFE00F097F800281A
:100380000DD1032C01D901200AE001300022210007
:10039000404200F07BF8054B1C60002000E001208B
:1003A00010BDC0460000002008000020040000200E
:1003B00010B5064A136810210B4313600320FFF7A2
:1003C000CFFF01F013F9002010BDC046002002400D
:1003D000034A1168034B1B785B1813607047C046D3
:1003E0002800002000000020014B18687047C0461C
:1003F0002800002070B5002811DB8308134DC0339E
:100400009B005C5903221040C000FC32160086405D
:10041000B44389010A40824022435A5170BD0F23E0
:100420000340083B9B0806339B00094A94466344FB
:100430005C6803221040C000FC3215008540AC43CC
:1004400089010A40824022435A60E7E700E100E068
:1004500000ED00E0013880235B0498420FD2094A86
:1004600050600948036A1B021B0AC02109060B439E
:10047000036200239360073313600020704701205C
:10048000FCE7C04610E000E000ED00E010B5FFF72B
:10049000B1FF10BD002805DB1F220240012393405D
:1004A000014A13607047C04600E100E010B5FFF755
:1004B000D1FF10BD10B504000068054B9C46604498
:1004C0001421FFF749FE80002064024BE36310BD56
:1004D000F8FFFDBF0000024070B5041E20D02125AA
:1004E0000223435501680A680E4B1A40436880682E
:1004F0000343E06803432069034360690343A06941
:100500000343E069034313430B602000FFF7D2FF6E
:100510000023A363012262551F32A354002070BD43
:100520000120FCE70FC0FFFF70B5C36B1A680468B9
:100530002568016C04238B401A4212D06B0710D53A
:1005400023689B0603D42368042293432360016C31
:10055000C26B04238B405360C36A002B00D09847C2
:1005600070BD02238B401A4218D0AB0716D5236802
:100570009B0606D423680A22934323602123093A69
:10058000C254016CC26B02238B40536020230022B3
:10059000C254836A002BE3D09847E1E708238B40DD
:1005A0001A42DDD02D07DBD523680E22934323604A
:1005B000016CC26B01231C008C40546083632122B8
:1005C00083541F330022C254036B002BC8D09847BA
:1005D000C6E70000F0B583B0002356E086685F00F0
:1005E0000324BC40A643CC68BC40344384604468C8
:1005F00094434E683609012232409A4022434260B9
:1006000053E0DE080836B600375805321A4092002B
:100610000F249440A7430C69944022003A4332507F
:1006200056E0032600E00026A64034003C43023298
:100630009200444E9451444A9768EA433E00AE43C8
:100640004C68E40201D53E002E433F4CA660E768AB
:100650003E0016404C68A40201D53E002E433A4CA1
:10066000E66067683E0016404C68A40301D53E0072
:100670002E43354C6660266832404C68E40301D551
:100680002A003243304C226001330C682200DA40E9
:1006900056D001229A40250015401442F4D04E68ED
:1006A00003243440013C012C98D94C680322224099
:1006B000032A08D0C4685E000322B24094438A68CB
:1006C000B2402243C2604C6803222240022A98D0E2
:1006D00004685E0003221700B740BC434F683A40ED
:1006E000B240224302604C68C02292021442CBD036
:1006F000164CA66901221643A661A4692240019204
:10070000019A9A08941CA4000E4EA75903241C4079
:10071000A4000F26A640B7439026F605B04282D02B
:100720000B4EB04208D00B4EB04207D00A4EB0423A
:1007300000D176E7052677E7012675E7022673E7FD
:1007400003B0F0BD00000140000401400010024071
:100750000004004800080048000C004810B5054B94
:100760005B69184200D110BD024B586100F0FAFEDF
:10077000F9E7C0460004014070B582B0041E00D104
:100780002EE20368DB0726D5AE4B5A680C231340D4
:10079000042B18D0AB4B5A680C231340082B0ED0F7
:1007A0006368012B3CD0002B51D1A64B1A68A64997
:1007B0000A401A601A68A5490A401A6036E0A14B3F
:1007C0005B68DB03ECD59F4B1B689B0303D5636819
:1007D000002B00D107E223689B0772D5994B5B6819
:1007E0000C221A425DD0974B5A680C231340082BF9
:1007F00053D0E368002B00D185E0924A13680121B1
:100800000B431360FFF7F0FD05008E4B1B689B0741
:1008100070D4FFF7E9FD401B0228F6D90320E0E180
:10082000884A116880235B020B4313606368002BC6
:1008300025D0FFF7D9FD0500824B1B689B03CAD466
:10084000FFF7D2FD401B6428F6D90320C9E1052B30
:1008500009D07C4B1A687C490A401A601A687B49A7
:100860000A401A60E2E7774B19688022D2020A43F5
:100870001A601968802252020A431A60D6E7FFF70D
:10088000B3FD05006F4B1B689B03A4D5FFF7ACFDC0
:10089000401B6428F6D90320A3E16A4B5B68DB03A5
:1008A000A7D4684B1B689B0703D5E368012B00D0D6
:1008B0009BE164490B68F82293432269D2001343F9
:1008C0000B6023681B0744D5E369002B2ED05D4ADB
:1008D000536A01210B435362FFF786FD0500594B14
:1008E0005B6A9B0735D4FFF77FFD401B0228F6D9D2
:1008F000032076E153490B68F82293432269D20022
:1009000013430B60DDE74F4A136801218B431360EB
:10091000FFF76AFD05004B4B1B689B07D1D5FFF71E
:1009200063FD401B0228F6D903205AE1454A536A69
:1009300001218B435362FFF757FD0500414B5B6A72
:100940009B0706D5FFF750FD401B0228F6D9032070
:1009500047E123685B0700D480E03A4BDB69DB00AA
:100960001DD4384BDA69802149050A43DA61DB6915
:100970000B400193019B0125354B1B68DB0510D50E
:10098000A368012B21D0002B36D12E4B1A6A0121EE
:100990008A431A621A6A03318A431A621AE00025EE
:1009A000EAE72B4A116880235B000B431360FFF7D3
:1009B0001BFD0600264B1B68DB05E1D4FFF714FD89
:1009C000801B6428F6D903200BE11E4A136A01211B
:1009D0000B431362A368002B24D0FFF705FD06002C
:1009E000184B1B6A9B0737D4FFF7FEFC801B194B83
:1009F0009842F5D90320F4E0052B09D0114B1A6A6F
:100A000001218A431A621A6A03318A431A62E1E7B2
:100A10000C4B1A6A04210A431A621A6A03390A4300
:100A20001A62D7E7FFF7E0FC0600064B1B6A9B073C
:100A300012D5FFF7D9FC801B064B9842F5D903204D
:100A4000CFE0C04600100240FFFFFEFFFFFFFBFFAC
:100A50000070004088130000012D33D02368DB06AE
:100A600010D56369012B33D0053351D1654A536BDF
:100A700004218B435363536BF4318B43A169C90049
:100A80000B435363236A002B00D1B0E05D4A5168E9
:100A90000C220A40082A00D18AE0022B4FD0594A82
:100AA000136859490B401360FFF79EFC0400554B37
:100AB0001B689B017AD5FFF797FC001B0228F6D92B
:100AC00003208EE04F4AD36950490B40D361C5E7FC
:100AD0004C4B5A6B04210A435A635A6B03390A433D
:100AE0005A63FFF781FC0500464B5B6B9B0706D4FE
:100AF000FFF77AFC401B0228F6D9032071E0414938
:100B00004B6BF8229343A269D20013434B63B9E7BE
:100B10003C4B5A6B04210A435A635A6B03398A438C
:100B20005A63FFF761FC0500364B5B6B9B07A9D549
:100B3000FFF75AFC401B0228F6D9032051E0314A46
:100B4000136831490B401360FFF74EFC05002D4B35
:100B50001B689B0106D5FFF747FC401B0228F6D90E
:100B600003203EE0274BDA6A0F218A43E16A0A43F9
:100B7000DA625A6826490A40A16A606A01430A4358
:100B80005A601968802252040A431A60FFF72CFC4D
:100B900004001C4B1B689B0106D4FFF725FC001BBF
:100BA0000228F6D903201CE000201AE0002018E0FB
:100BB000012B1ED0134B5A68D86A80235B02134066
:100BC000616A8B4217D10F230340E16A8B4214D133
:100BD000F0239B031A40A36A9A4210D1002000E040
:100BE000012002B070BD0120FBE70120F9E70020E1
:100BF000F7E70120F5E70120F3E70120F1E7012005
:100C0000EFE7C04600100240FFFFFFFEFFFFFFEFCF
:100C1000FFFFC2FF10B5104B5A680C231340082B7E
:100C200001D00E4810BD910C073319400C48445CAC
:100C30000949C96A0B400B49C95CD20304D507486E
:100C4000FFF78AFA6043EDE76201121B93019B1ADA
:100C5000DB001B191802E5E70010024000127A00C1
:100C6000B4180008A418000870B504000D0000288E
:100C700000D17EE0434B1A68012313408B420AD215
:100C800040490B68012293432B430B600B681A40C9
:100C9000AA4200D06FE023689A070ED55B0705D5FE
:100CA000394A5168E023DB000B435360364A5368EE
:100CB000F0218B43A1680B4353602368DB072DD5DC
:100CC0006368012B1ED0022B22D02F4A1268920794
:100CD00053D52D494A680320824313434B60FFF7E5
:100CE00083FB0600284B5B680C221A4063689B005C
:100CF0009A4213D0FFF778FB801B244B9842F1D91E
:100D0000032035E0204A12689203E2D401202FE04C
:100D10001D4A12689201DCD4012029E0194B1A689F
:100D200001231340AB4209D916490B6801229343B2
:100D30002B430B600B681A40AA4220D123685B0743
:100D400006D5114A536812490B40E1680B435360C2
:100D5000FFF760FF0C4B5A6812090F2313400D4A2E
:100D6000D35CD8400C4B18600320FFF7F9FA002041
:100D700070BD0120FCE70120FAE70120F8E701201F
:100D8000F6E7C04600200240001002408813000031
:100D9000FFF8FFFFC41800080800002030B5036A00
:100DA000012293430362056A426883697324A34363
:100DB0000C681C4302239D438B682B43154DA842AE
:100DC00008D0154DA84205D0144DA84202D0144DAC
:100DD000A84206D10825AB431D00CB682B43042550
:100DE000AB430C4DA84208D00B4DA84205D00B4D8B
:100DF000A84202D00A4DA84205D10A4D2A404D69A9
:100E000015438A692A43426084614A6842630362E7
:100E100030BDC046002C014000400140004401406C
:100E200000480140FFFCFFFF30B5036A184A134039
:100E30000362046A4268C3697325AB430D681D43AE
:100E4000144B1C408B681B022343134CA04209D057
:100E5000124CA0420DD0124CA0420AD0114CA0421C
:100E60000FD106E0104C1C40CB681B0223430F4CF3
:100E700023400F4C22404C69240114438A6912011B
:100E800022434260C5614A68C263036230BDC04606
:100E9000FFFEFFFFFFFDFFFF002C0140004001406F
:100EA0000044014000480140FFF7FFFFFFFBFFFF48
:100EB000FFCFFFFF30B5036A134A13400362046A91
:100EC0004368C269114D2A400D682D021543104A2E
:100ED00014408A68120322430E4CA04208D00E4CE4
:100EE000A04205D00D4CA04202D00D4CA04204D12E
:100EF0000C4C1C404B699B0123434360C5614B680C
:100F00000364026230BDC046FFEFFFFFFF8CFFFFAE
:100F1000FFDFFFFF002C0140004001400044014082
:100F200000480140FFBFFFFF0368214A904206D0FE
:100F30008022D205904202D01E4A904203D17022F4
:100F400093434A6813431A4A904212D08022D20532
:100F500090420ED0174A90420BD0174A904208D0C8
:100F6000164A904205D0164A904202D0154A904245
:100F700003D1154A1A40CB681343802293434A6930
:100F8000134303608B68C3620B688362084B98420B
:100F900008D00A4B984205D0094B984202D0094B21
:100FA000984201D10B690363012343617047C04636
:100FB000002C01400004004000200040004001409F
:100FC0000044014000480140FFFCFFFF70B5041ED3
:100FD00026D03D23C35C002B1CD03D250223635546
:100FE000210001C9FFF7A0FF01234622A354083ABC
:100FF000A3540132A3540132A3540132A354013249
:10100000A3540132A3540132A3540132A3546355B3
:10101000002070BD3C330022C25400F055FBDCE7D9
:101020000120F6E770B5041E26D03D23C35C002BDB
:101030001CD03D2502236355210001C9FFF774FF31
:1010400001234622A354083AA3540132A354013287
:10105000A3540132A3540132A3540132A3540132E8
:10106000A3540132A3546355002070BD3C330022C9
:10107000C25400F05FFBDCE70120F6E770B5036ABD
:10108000102293430362026A44688369164D2B4021
:101090000D682D021D4320239A438B681B011343C7
:1010A000124A904209D0124A90420ED0114A904200
:1010B0000BD0114A904210D107E0802293431E00CA
:1010C000CB681B013343403A93430C4A14404A69AE
:1010D000920022438C69A4001443446085614A68ED
:1010E0008263036270BDC046FF8CFFFF002C01408D
:1010F000004001400044014000480140FFF3FFFF71
:1011000010B504003C23C35C012B24D03C230120F8
:10111000E054082A1AD008D8002A0FD0042A11D186
:101120002068FFF7ABFF00200CE00C2A04D12068F8
:10113000FFF7C0FE002005E0012003E02068FFF774
:101140002DFE00203C230022E25410BD2068FFF752
:101150006BFE0020F6E70220F7E7000070B5040000
:101160000D003C23C35C012B00D16AE03C2301212C
:10117000C154082A50D01CD8002A35D0042A16D1D0
:1011800000682900FFF77AFF2268916980231B011C
:101190000B439361226893692B490B40936121684B
:1011A0008B692A69120213438B61002030E0012011
:1011B0002EE00C2A16D100682900FFF77BFE22687A
:1011C000D16980231B010B43D3612268D3691E4977
:1011D0000B40D3612168CB692A6912021343CB61AA
:1011E000002015E0012013E000682900FFF7D6FD7C
:1011F0002268936908210B4393612268936904393B
:101200008B4393612268936929690B4393610020A2
:101210003C230022E25470BD00682900FFF704FE61
:101220002268D36908210B43D3612268D36904394A
:101230008B43D3612268D36929690B43D3610020B2
:10124000E6E70220E7E7C046FFFBFFFF30B53C239F
:10125000C35C012B28D03C230122C254013301324C
:10126000C25403685C689D686E3294430A682243E6
:101270005A6003680D4A934209D08022D2059342F6
:1012800005D00B4A934202D00A4A934204D18022ED
:1012900095434A682A439A603D230122C254013B88
:1012A0000022C254002030BD0220FCE7002C014087
:1012B000000400400040014082B0054A516901230A
:1012C00019435161526913400193019B02B0704769
:1012D0000010024000B589B01422002103A8FEF7D7
:1012E000C7FF144B5A698021C9030A435A615A69DE
:1012F0000A400092009A5A69802189020A435A6181
:101300005A690A400192019A5A698021C9020A4326
:101310005A615B690B400293029B0123039388236C
:101320005B030493902003A9C005FFF753F909B0AC
:1013300000BDC0460010024010B5002200210B2065
:10134000FFF7A4F80B20FFF7A5F8002200210520E5
:10135000FFF79CF80520FFF79DF810BD82B0430011
:1013600018180023019304E0C046C046019B0133D6
:101370000193019B8342F7D302B0704770B51420EC
:10138000FFF7ECFF0A4CA36980252D022B43A361D4
:101390001420FFF7E3FFA26980231B061343A36118
:1013A0001420FFF7DBFFA3691D43A56170BDC04694
:1013B0000008004810B50400474A91698023DB0506
:1013C0000B43936143B2002B49DB9022D205916914
:1013D00080231B060B439361630648D59022D205F8
:1013E000916980235B010B439361A30647D53B4A78
:1013F000916980239B000B439361E30646D5374AEE
:10140000916980235B000B439361FFF7B7FF2307CC
:1014100043D59022D205916980231B020B4393612F
:10142000630742D59022D205916980235B010B436B
:101430009361A30741D5294A916980239B000B43FF
:101440009361E40740D5254A916980235B000B43F3
:101450009361FFF793FF2248FFF780FF10BD9022B2
:10146000D205916980231B020B439361B4E790225C
:10147000D205916980235B050B439361B5E7174A59
:10148000916980239B040B439361B6E7134A9169EA
:1014900080235B040B439361B7E79022D2059169E7
:1014A00080231B060B439361BAE79022D205916912
:1014B00080235B050B439361BBE7084A9169802356
:1014C0009B040B439361BCE7044A916980235B044E
:1014D0000B439361BDE7C046000800480004004884
:1014E000B80B000010B51B4B5969802292020A43C9
:1014F0005A6159698022D2020A435A61596980228D
:1015000012030A435A619022D20511688223DB0537
:101510000B431360104A1168A023DB020B431360D6
:101520000E4A1168A023DB050B4313600C48FFF73C
:1015300015FF3320FFF73EFF3220FFF73BFF0C2063
:10154000FFF738FF2820FFF735FF0120FFF732FFB4
:1015500010BDC046001002400004004800080048CA
:1015600030750000704772B6FEE700B591B03022CA
:10157000002104A8FEF77CFE102200216846FEF739
:1015800077FE02230493013B07930F33089304A8CB
:10159000FFF7F2F800280DD10723009300230193F1
:1015A0000293039300216846FFF75EFB002803D1F6
:1015B00011B000BDFFF7D7FFFFF7D5FF10B5FEF75D
:1015C000F7FEFFF78FFFFFF7D0FFFFF783FEFFF770
:1015D00073FE00F03BF800F0EBF8FFF7ADFE0248B9
:1015E000FFF7BCFEFEE7C046B80B000082B00A4B16
:1015F000996901221143996199690A400092009A00
:10160000DA69802149050A43DA61DB690B400193FD
:10161000019B02B07047C04600100240FEE7FEE7A3
:101620007047704710B5FEF7D3FE10BD10B501200E
:10163000FFF794F810BD000010B50248FEF774FFE4
:1016400010BDC0462C0000207047000000B58BB0D4
:101650000822002108A8FEF70BFE1C22002101A889
:10166000FEF706FE17488023DB0503600023436076
:1016700083606422C26003618361FFF7A7FC0028D6
:1016800016D10023089309930E4808A9FFF7DEFD41
:10169000002810D100230193029303930593094876
:1016A000002201A9FFF72CFD002807D10BB000BDD7
:1016B000FFF759FFE5E7FFF756FFEBE7FFF753FFAB
:1016C000F4E7C046B800002010B582B004000268FC
:1016D0008023DB059A4201D002B010BD124AD169C5
:1016E00001231943D161D26913400193019B0F4833
:1016F0000F4B036010234360002383608022C2608D
:101700008132FF3202618022120142612022826115
:10171000C361FEF7E1FE002803D1044B63625C6203
:10172000DAE7FFF720FFF8E7001002402C00002066
:101730005800024082B00268074B9A4201D002B0C2
:101740007047064AD16902231943D161D269134017
:101750000193019BF3E7C0460004004000100240E3
:1017600010B586B004001422002101A8FEF780FD08
:1017700022680C4B9A4201D006B010BD0A4B5A6940
:101780008021C9020A435A615B690B400093009BA8
:101790000123019302220292059301A90348FEF757
:1017A00019FFE9E70004004000100240000400486F
:1017B00000B58BB00822002108A8FEF759FD1C22B5
:1017C000002101A8FEF754FD1848194B03600023BF
:1017D00043608360174AC26003618361FFF722FCA4
:1017E00000281AD1002308930993104808A9FFF78D
:1017F0002DFD002814D1602301930023029303934D
:1018000005930A48082201A9FFF7A8FC00280AD17D
:101810000648FFF7A5FF0BB000BDFFF7A4FEE1E708
:10182000FFF7A1FEE7E7FFF79EFEF1E7700000205B
:1018300000040040FF0300000D488546FFF704FF49
:101840000C480D490D4A002302E0D458C45004331B
:10185000C4188C42F9D30A4A0A4C002301E01360F1
:101860000432A242FBD3FEF757FDFFF7A7FEFEE7C7
:1018700000200020000000200C000020DC180008E0
:101880000C00002000010020FEE70000F8B5C04673
:10189000F8BC08BC9E467047F8B5C046F8BC08BC0A
:0418A0009E467047A9
:1018A4000102030405060708090A0B0C0D0E0F10AC
:1018B40002030405060708090A0B0C0D0E0F10108D
:1018C40000000000000000000102030406070809EC
:0418D40035010008D2
:0418D80009010008FA
:0C18DC00010000000400000000127A006F
:04000005080018399E
:00000001FF
