:020000040800F2
:1000000000100020690B0008550B0008570B000872
:1000100000000000000000000000000000000000E0
:10002000000000000000000000000000590B000864
:1000300000000000000000005B0B00085D0B0008E2
:10004000B90B000800000000B90B0008B90B00084C
:10005000B90B0008B90B0008B90B0008B90B000870
:1000600000000000B90B0008B90B0008B90B00082C
:10007000B90B0008B90B0008B90B0008000000001C
:10008000B90B00080000000000000000B90B0008D8
:1000900000000000B90B0008B90B0008B90B0008FC
:1000A00000000000B90B000800000000B90B0008B8
:1000B0000000000000000000000000000000000040
:1000C0000448054B10B5834203D0044B002B00D0ED
:1000D000984710BD0C0000200C000020000000001C
:1000E00006480749091A8B10C90FC91810B54910DD
:1000F00003D0044B002B00D0984710BD0C0000200B
:100100000C0000200000000010B5074C2378002BE5
:1001100009D1FFF7D5FF054B002B02D0044800E0C2
:1001200000BF0123237010BD0C0000200000000060
:10013000BC0B0008054B10B5002B03D00449054843
:1001400000E000BFFFF7CCFF10BDC046000000007C
:1001500010000020BC0B0008002243088B4274D31F
:1001600003098B425FD3030A8B4244D3030B8B42B8
:1001700028D3030C8B420DD3FF22090212BA030CC1
:100180008B4202D31212090265D0030B8B4219D3A2
:1001900000E0090AC30B8B4201D3CB03C01A5241C2
:1001A000830B8B4201D38B03C01A5241430B8B420A
:1001B00001D34B03C01A5241030B8B4201D30B03F3
:1001C000C01A5241C30A8B4201D3CB02C01A52411A
:1001D000830A8B4201D38B02C01A5241430A8B42DD
:1001E00001D34B02C01A5241030A8B4201D30B02C6
:1001F000C01A5241CDD2C3098B4201D3CB01C01AE0
:10020000524183098B4201D38B01C01A52414309E9
:100210008B4201D34B01C01A524103098B4201D3D7
:100220000B01C01A5241C3088B4201D3CB00C01A44
:10023000524183088B4201D38B00C01A52414308BC
:100240008B4201D34B00C01A5241411A00D20146E1
:10025000524110467047FFE701B5002000F006F854
:1002600002BDC0460029F7D076E770477047C04608
:10027000F0B50500830749D0541E002A45D003007D
:100280000326CAB202E00135013C3ED301332A7095
:100290003342F8D1032C30D9FF220A401502AD18A1
:1002A0002A04AD180F2C34D92700103F3F093E0116
:1002B000B4461E001A0010366644156055609560FD
:1002C000D56010329642F8D101373F01DB190F2774
:1002D0000C22274022403C00002A0ED03E1FB608C8
:1002E000B400A4461A001C1D644420C2A242FCD1E2
:1002F00003240136B6009B193C40002C05D0C9B23E
:100300001C19197001339C42FBD1F0BD030014008D
:10031000C0E72700E2E7C04670B50D4B0D4D5E1BF0
:10032000B610AB4205D0002408CD01349847A64250
:10033000FAD800F043FC084B084D5E1BB610AB42E8
:1003400005D0002408CD01349847A642FAD870BDE4
:10035000040C0008040C0008080C0008040C000839
:1003600010B504000F4B1978FA208000FFF7F4FE57
:1003700001000D4B1868FFF7EFFE00F08BF8002826
:100380000DD1032C01D901200AE001300022210007
:10039000404200F07BF8054B1C60002000E001208B
:1003A00010BDC0460000002008000020040000200E
:1003B00010B5064A136810210B4313600320FFF7A2
:1003C000CFFF00F0AFFB002010BDC0460020024070
:1003D000034A1168034B1B785B1813607047C046D3
:1003E0002800002000000020014B18687047C0461C
:1003F0002800002070B5002811DB8308134DC0339E
:100400009B005C5903221040C000FC32160086405D
:10041000B44389010A40824022435A5170BD0F23E0
:100420000340083B9B0806339B00094A94466344FB
:100430005C6803221040C000FC3215008540AC43CC
:1004400089010A40824022435A60E7E700E100E068
:1004500000ED00E0013880235B0498420FD2094A86
:1004600050600948036A1B021B0AC02109060B439E
:10047000036200239360073313600020704701205C
:10048000FCE7C04610E000E000ED00E010B5FFF72B
:10049000B1FF10BD10B5FFF7DDFF10BD70B582B024
:1004A000041E00D12EE20368DB0726D5AE4B5A6846
:1004B0000C231340042B18D0AB4B5A680C23134069
:1004C000082B0ED06368012B3CD0002B51D1A64BDA
:1004D0001A68A6490A401A601A68A5490A401A60B3
:1004E00036E0A14B5B68DB03ECD59F4B1B689B039D
:1004F00003D56368002B00D107E223689B0772D500
:10050000994B5B680C221A425DD0974B5A680C23BA
:100510001340082B53D0E368002B00D185E0924AAA
:10052000136801210B431360FFF75EFF05008E4B3C
:100530001B689B0770D4FFF757FF401B0228F6D9B2
:100540000320E0E1884A116880235B020B431360BB
:100550006368002B25D0FFF747FF0500824B1B681F
:100560009B03CAD4FFF740FF401B6428F6D9032041
:10057000C9E1052B09D07C4B1A687C490A401A60F6
:100580001A687B490A401A60E2E7774B19688022B3
:10059000D2020A431A601968802252020A431A6082
:1005A000D6E7FFF721FF05006F4B1B689B03A4D51F
:1005B000FFF71AFF401B6428F6D90320A3E16A4B1A
:1005C0005B68DB03A7D4684B1B689B0703D5E36814
:1005D000012B00D09BE164490B68F8229343226908
:1005E000D20013430B6023681B0744D5E369002B3B
:1005F0002ED05D4A536A01210B435362FFF7F4FE8C
:100600000500594B5B6A9B0735D4FFF7EDFE401B95
:100610000228F6D9032076E153490B68F822934368
:100620002269D20013430B60DDE74F4A13680121B2
:100630008B431360FFF7D8FE05004B4B1B689B07ED
:10064000D1D5FFF7D1FE401B0228F6D903205AE18D
:10065000454A536A01218B435362FFF7C5FE0500EB
:10066000414B5B6A9B0706D5FFF7BEFE401B022885
:10067000F6D9032047E123685B0700D480E03A4BBA
:10068000DB69DB001DD4384BDA69802149050A4358
:10069000DA61DB690B400193019B0125354B1B6837
:1006A000DB0510D5A368012B21D0002B36D12E4BB2
:1006B0001A6A01218A431A621A6A03318A431A624A
:1006C0001AE00025EAE72B4A116880235B000B4300
:1006D0001360FFF789FE0600264B1B68DB05E1D49B
:1006E000FFF782FE801B6428F6D903200BE11E4A27
:1006F000136A01210B431362A368002B24D0FFF778
:1007000073FE0600184B1B6A9B0737D4FFF76CFE7D
:10071000801B194B9842F5D90320F4E0052B09D032
:10072000114B1A6A01218A431A621A6A03318A43F9
:100730001A62E1E70C4B1A6A04210A431A621A6A28
:1007400003390A431A62D7E7FFF74EFE0600064B4D
:100750001B6A9B0712D5FFF747FE801B064B98428A
:10076000F5D90320CFE0C04600100240FFFFFEFF96
:10077000FFFFFBFF0070004088130000012D33D005
:100780002368DB0610D56369012B33D0053351D1C3
:10079000654A536B04218B435363536BF4318B4392
:1007A000A169C9000B435363236A002B00D1B0E059
:1007B0005D4A51680C220A40082A00D18AE0022BC7
:1007C0004FD0594A136859490B401360FFF70CFE8C
:1007D0000400554B1B689B017AD5FFF705FE001BF3
:1007E0000228F6D903208EE04F4AD36950490B40C6
:1007F000D361C5E74C4B5A6B04210A435A635A6BC9
:1008000003390A435A63FFF7EFFD0500464B5B6B64
:100810009B0706D4FFF7E8FD401B0228F6D903200A
:1008200071E041494B6BF8229343A269D200134314
:100830004B63B9E73C4B5A6B04210A435A635A6B2A
:1008400003398A435A63FFF7CFFD0500364B5B6BD4
:100850009B07A9D5FFF7C8FD401B0228F6D9032046
:1008600051E0314A136831490B401360FFF7BCFD7A
:1008700005002D4B1B689B0106D5FFF7B5FD401BFE
:100880000228F6D903203EE0274BDA6A0F218A437B
:10089000E16A0A43DA625A6826490A40A16A606A34
:1008A00001430A435A601968802252040A431A60BD
:1008B000FFF79AFD04001C4B1B689B0106D4FFF751
:1008C00093FD001B0228F6D903201CE000201AE04B
:1008D000002018E0012B1ED0134B5A68D86A8023E1
:1008E0005B021340616A8B4217D10F230340E16A18
:1008F0008B4214D1F0239B031A40A36A9A4210D171
:10090000002000E0012002B070BD0120FBE70120C3
:10091000F9E70020F7E70120F5E70120F3E70120E0
:10092000F1E70120EFE7C04600100240FFFFFFFEA5
:10093000FFFFFFEFFFFFC2FF10B5104B5A680C23FB
:100940001340082B01D00E4810BD910C07331940FD
:100950000C48445C0949C96A0B400B49C95CD20385
:1009600004D50748FFF7F8FB6043EDE76201121B6F
:1009700093019B1ADB001B191802E5E700100240E7
:1009800000127A00E40B0008D40B000870B50400D4
:100990000D00002800D17EE0434B1A68012313406C
:1009A0008B420AD240490B68012293432B430B60D0
:1009B0000B681A40AA4200D06FE023689A070ED550
:1009C0005B0705D5394A5168E023DB000B435360D0
:1009D000364A5368F0218B43A1680B435360236868
:1009E000DB072DD56368012B1ED0022B22D02F4AA6
:1009F0001268920753D52D494A6803208243134356
:100A00004B60FFF7F1FC0600284B5B680C221A4094
:100A100063689B009A4213D0FFF7E6FC801B244BCF
:100A20009842F1D9032035E0204A12689203E2D4BB
:100A300001202FE01D4A12689201DCD4012029E038
:100A4000194B1A6801231340AB4209D916490B68A8
:100A5000012293432B430B600B681A40AA4220D11A
:100A600023685B0706D5114A536812490B40E168B9
:100A70000B435360FFF760FF0C4B5A6812090F23BA
:100A800013400D4AD35CD8400C4B18600320FFF78D
:100A900067FC002070BD0120FCE70120FAE701207F
:100AA000F8E70120F6E7C0460020024000100240AF
:100AB00088130000FFF8FFFFF40B00080800002077
:100AC00072B6FEE700B591B03022002104A8FFF70E
:100AD000CFFB102200216846FFF7CAFB02230493D4
:100AE000013B07930F33089304A8FFF7D7FC0028B6
:100AF0000DD1072300930023019302930393002158
:100B00006846FFF743FF002803D111B000BDFFF78F
:100B1000D7FFFFF7D5FF10B5FFF74AFCFFF7D2FF6D
:100B2000FEE7000082B00A4B9969012211439961E6
:100B300099690A400092009ADA69802149050A43BE
:100B4000DA61DB690B400193019B02B07047C0463C
:100B500000100240FEE7FEE77047704710B5FFF750
:100B600037FC10BD704700000D488546FFF7FAFFBF
:100B70000C480D490D4A002302E0D458C4500433F8
:100B8000C4188C42F9D30A4A0A4C002301E01360CE
:100B90000432A242FBD3FFF7BFFBFFF7BCFFFEE727
:100BA00000100020000000200C0000200C0C0008A9
:100BB0000C0000202C000020FEE70000F8B5C04625
:100BC000F8BC08BC9E467047F8B5C046F8BC08BCE7
:040BD0009E46704786
:100BD4000102030405060708090A0B0C0D0E0F1089
:100BE40002030405060708090A0B0C0D0E0F10106A
:100BF40000000000000000000102030406070809C9
:040C040035010008AE
:040C080009010008D6
:0C0C0C00010000000400000000127A004B
:0400000508000B697B
:00000001FF
